{
  "_format": "hh3-artifact-1",
  "contractName": "UpgradeableFirstPartyStork",
  "sourceName": "contracts/UpgradeableFirstPartyStork.sol",
  "abi": [
    {
      "inputs": [],
      "stateMutability": "nonpayable",
      "type": "constructor"
    },
    {
      "inputs": [
        {
          "internalType": "address",
          "name": "target",
          "type": "address"
        }
      ],
      "name": "AddressEmptyCode",
      "type": "error"
    },
    {
      "inputs": [],
      "name": "ECDSAInvalidSignature",
      "type": "error"
    },
    {
      "inputs": [
        {
          "internalType": "uint256",
          "name": "length",
          "type": "uint256"
        }
      ],
      "name": "ECDSAInvalidSignatureLength",
      "type": "error"
    },
    {
      "inputs": [
        {
          "internalType": "bytes32",
          "name": "s",
          "type": "bytes32"
        }
      ],
      "name": "ECDSAInvalidSignatureS",
      "type": "error"
    },
    {
      "inputs": [
        {
          "internalType": "address",
          "name": "implementation",
          "type": "address"
        }
      ],
      "name": "ERC1967InvalidImplementation",
      "type": "error"
    },
    {
      "inputs": [],
      "name": "ERC1967NonPayable",
      "type": "error"
    },
    {
      "inputs": [],
      "name": "FailedCall",
      "type": "error"
    },
    {
      "inputs": [],
      "name": "InsufficientFee",
      "type": "error"
    },
    {
      "inputs": [],
      "name": "InvalidInitialization",
      "type": "error"
    },
    {
      "inputs": [],
      "name": "InvalidSignature",
      "type": "error"
    },
    {
      "inputs": [],
      "name": "NoFreshUpdate",
      "type": "error"
    },
    {
      "inputs": [],
      "name": "NotFound",
      "type": "error"
    },
    {
      "inputs": [],
      "name": "NotInitializing",
      "type": "error"
    },
    {
      "inputs": [
        {
          "internalType": "address",
          "name": "owner",
          "type": "address"
        }
      ],
      "name": "OwnableInvalidOwner",
      "type": "error"
    },
    {
      "inputs": [
        {
          "internalType": "address",
          "name": "account",
          "type": "address"
        }
      ],
      "name": "OwnableUnauthorizedAccount",
      "type": "error"
    },
    {
      "inputs": [],
      "name": "UUPSUnauthorizedCallContext",
      "type": "error"
    },
    {
      "inputs": [
        {
          "internalType": "bytes32",
          "name": "slot",
          "type": "bytes32"
        }
      ],
      "name": "UUPSUnsupportedProxiableUUID",
      "type": "error"
    },
    {
      "anonymous": false,
      "inputs": [
        {
          "indexed": true,
          "internalType": "address",
          "name": "pubKey",
          "type": "address"
        },
        {
          "indexed": true,
          "internalType": "string",
          "name": "encodedAssetId",
          "type": "string"
        },
        {
          "indexed": false,
          "internalType": "string",
          "name": "assetId",
          "type": "string"
        },
        {
          "indexed": false,
          "internalType": "uint64",
          "name": "timestampNs",
          "type": "uint64"
        },
        {
          "indexed": false,
          "internalType": "int192",
          "name": "quantizedValue",
          "type": "int192"
        },
        {
          "indexed": false,
          "internalType": "uint256",
          "name": "roundId",
          "type": "uint256"
        }
      ],
      "name": "HistoricalValueStored",
      "type": "event"
    },
    {
      "anonymous": false,
      "inputs": [
        {
          "indexed": false,
          "internalType": "uint64",
          "name": "version",
          "type": "uint64"
        }
      ],
      "name": "Initialized",
      "type": "event"
    },
    {
      "anonymous": false,
      "inputs": [
        {
          "indexed": true,
          "internalType": "address",
          "name": "previousOwner",
          "type": "address"
        },
        {
          "indexed": true,
          "internalType": "address",
          "name": "newOwner",
          "type": "address"
        }
      ],
      "name": "OwnershipTransferStarted",
      "type": "event"
    },
    {
      "anonymous": false,
      "inputs": [
        {
          "indexed": true,
          "internalType": "address",
          "name": "previousOwner",
          "type": "address"
        },
        {
          "indexed": true,
          "internalType": "address",
          "name": "newOwner",
          "type": "address"
        }
      ],
      "name": "OwnershipTransferred",
      "type": "event"
    },
    {
      "anonymous": false,
      "inputs": [
        {
          "indexed": true,
          "internalType": "address",
          "name": "pubKey",
          "type": "address"
        },
        {
          "indexed": false,
          "internalType": "uint256",
          "name": "singleUpdateFee",
          "type": "uint256"
        }
      ],
      "name": "PublisherUserAdded",
      "type": "event"
    },
    {
      "anonymous": false,
      "inputs": [
        {
          "indexed": true,
          "internalType": "address",
          "name": "pubKey",
          "type": "address"
        }
      ],
      "name": "PublisherUserRemoved",
      "type": "event"
    },
    {
      "anonymous": false,
      "inputs": [
        {
          "indexed": true,
          "internalType": "address",
          "name": "implementation",
          "type": "address"
        }
      ],
      "name": "Upgraded",
      "type": "event"
    },
    {
      "anonymous": false,
      "inputs": [
        {
          "indexed": true,
          "internalType": "address",
          "name": "pubKey",
          "type": "address"
        },
        {
          "indexed": true,
          "internalType": "string",
          "name": "encodedAssetId",
          "type": "string"
        },
        {
          "indexed": false,
          "internalType": "string",
          "name": "assetId",
          "type": "string"
        },
        {
          "indexed": false,
          "internalType": "uint64",
          "name": "timestampNs",
          "type": "uint64"
        },
        {
          "indexed": false,
          "internalType": "int192",
          "name": "quantizedValue",
          "type": "int192"
        }
      ],
      "name": "ValueUpdate",
      "type": "event"
    },
    {
      "inputs": [],
      "name": "UPGRADE_INTERFACE_VERSION",
      "outputs": [
        {
          "internalType": "string",
          "name": "",
          "type": "string"
        }
      ],
      "stateMutability": "view",
      "type": "function"
    },
    {
      "inputs": [],
      "name": "acceptOwnership",
      "outputs": [],
      "stateMutability": "nonpayable",
      "type": "function"
    },
    {
      "inputs": [
        {
          "internalType": "address",
          "name": "pubKey",
          "type": "address"
        },
        {
          "internalType": "uint256",
          "name": "singleUpdateFee",
          "type": "uint256"
        }
      ],
      "name": "createPublisherUser",
      "outputs": [],
      "stateMutability": "nonpayable",
      "type": "function"
    },
    {
      "inputs": [
        {
          "internalType": "address",
          "name": "pubKey",
          "type": "address"
        }
      ],
      "name": "deletePublisherUser",
      "outputs": [],
      "stateMutability": "nonpayable",
      "type": "function"
    },
    {
      "inputs": [
        {
          "internalType": "address",
          "name": "pubKey",
          "type": "address"
        },
        {
          "internalType": "string",
          "name": "assetPairId",
          "type": "string"
        }
      ],
      "name": "getCurrentRoundId",
      "outputs": [
        {
          "internalType": "uint256",
          "name": "",
          "type": "uint256"
        }
      ],
      "stateMutability": "view",
      "type": "function"
    },
    {
      "inputs": [
        {
          "internalType": "string",
          "name": "assetPairId",
          "type": "string"
        }
      ],
      "name": "getEncodedAssetId",
      "outputs": [
        {
          "internalType": "bytes32",
          "name": "",
          "type": "bytes32"
        }
      ],
      "stateMutability": "pure",
      "type": "function"
    },
    {
      "inputs": [
        {
          "internalType": "address",
          "name": "pubKey",
          "type": "address"
        },
        {
          "internalType": "string",
          "name": "assetPairId",
          "type": "string"
        }
      ],
      "name": "getHistoricalRecordsCount",
      "outputs": [
        {
          "internalType": "uint256",
          "name": "",
          "type": "uint256"
        }
      ],
      "stateMutability": "view",
      "type": "function"
    },
    {
      "inputs": [
        {
          "internalType": "address",
          "name": "pubKey",
          "type": "address"
        },
        {
          "internalType": "string",
          "name": "assetPairId",
          "type": "string"
        },
        {
          "internalType": "uint256",
          "name": "roundId",
          "type": "uint256"
        }
      ],
      "name": "getHistoricalTemporalNumericValue",
      "outputs": [
        {
          "components": [
            {
              "internalType": "uint64",
              "name": "timestampNs",
              "type": "uint64"
            },
            {
              "internalType": "int192",
              "name": "quantizedValue",
              "type": "int192"
            }
          ],
          "internalType": "struct FirstPartyStorkStructs.TemporalNumericValue",
          "name": "",
          "type": "tuple"
        }
      ],
      "stateMutability": "view",
      "type": "function"
    },
    {
      "inputs": [
        {
          "internalType": "address",
          "name": "pubKey",
          "type": "address"
        },
        {
          "internalType": "string",
          "name": "assetPairId",
          "type": "string"
        }
      ],
      "name": "getLatestTemporalNumericValue",
      "outputs": [
        {
          "components": [
            {
              "internalType": "uint64",
              "name": "timestampNs",
              "type": "uint64"
            },
            {
              "internalType": "int192",
              "name": "quantizedValue",
              "type": "int192"
            }
          ],
          "internalType": "struct FirstPartyStorkStructs.TemporalNumericValue",
          "name": "value",
          "type": "tuple"
        }
      ],
      "stateMutability": "view",
      "type": "function"
    },
    {
      "inputs": [
        {
          "internalType": "address",
          "name": "pubKey",
          "type": "address"
        }
      ],
      "name": "getPublisherUser",
      "outputs": [
        {
          "components": [
            {
              "internalType": "address",
              "name": "pubKey",
              "type": "address"
            },
            {
              "internalType": "uint256",
              "name": "singleUpdateFee",
              "type": "uint256"
            }
          ],
          "internalType": "struct FirstPartyStorkStructs.PublisherUser",
          "name": "",
          "type": "tuple"
        }
      ],
      "stateMutability": "view",
      "type": "function"
    },
    {
      "inputs": [
        {
          "internalType": "address",
          "name": "pubKey",
          "type": "address"
        }
      ],
      "name": "getSingleUpdateFee",
      "outputs": [
        {
          "internalType": "uint256",
          "name": "",
          "type": "uint256"
        }
      ],
      "stateMutability": "view",
      "type": "function"
    },
    {
      "inputs": [
        {
          "components": [
            {
              "components": [
                {
                  "internalType": "uint64",
                  "name": "timestampNs",
                  "type": "uint64"
                },
                {
                  "internalType": "int192",
                  "name": "quantizedValue",
                  "type": "int192"
                }
              ],
              "internalType": "struct FirstPartyStorkStructs.TemporalNumericValue",
              "name": "temporalNumericValue",
              "type": "tuple"
            },
            {
              "internalType": "address",
              "name": "pubKey",
              "type": "address"
            },
            {
              "internalType": "string",
              "name": "assetPairId",
              "type": "string"
            },
            {
              "internalType": "bool",
              "name": "storeHistorical",
              "type": "bool"
            },
            {
              "internalType": "bytes32",
              "name": "r",
              "type": "bytes32"
            },
            {
              "internalType": "bytes32",
              "name": "s",
              "type": "bytes32"
            },
            {
              "internalType": "uint8",
              "name": "v",
              "type": "uint8"
            }
          ],
          "internalType": "struct FirstPartyStorkStructs.PublisherTemporalNumericValueInput[]",
          "name": "updateData",
          "type": "tuple[]"
        }
      ],
      "name": "getUpdateFeeV1",
      "outputs": [
        {
          "internalType": "uint256",
          "name": "",
          "type": "uint256"
        }
      ],
      "stateMutability": "view",
      "type": "function"
    },
    {
      "inputs": [
        {
          "internalType": "address",
          "name": "initialOwner",
          "type": "address"
        }
      ],
      "name": "initialize",
      "outputs": [],
      "stateMutability": "nonpayable",
      "type": "function"
    },
    {
      "inputs": [],
      "name": "owner",
      "outputs": [
        {
          "internalType": "address",
          "name": "",
          "type": "address"
        }
      ],
      "stateMutability": "view",
      "type": "function"
    },
    {
      "inputs": [],
      "name": "pendingOwner",
      "outputs": [
        {
          "internalType": "address",
          "name": "",
          "type": "address"
        }
      ],
      "stateMutability": "view",
      "type": "function"
    },
    {
      "inputs": [],
      "name": "proxiableUUID",
      "outputs": [
        {
          "internalType": "bytes32",
          "name": "",
          "type": "bytes32"
        }
      ],
      "stateMutability": "view",
      "type": "function"
    },
    {
      "inputs": [],
      "name": "renounceOwnership",
      "outputs": [],
      "stateMutability": "nonpayable",
      "type": "function"
    },
    {
      "inputs": [
        {
          "internalType": "address",
          "name": "newOwner",
          "type": "address"
        }
      ],
      "name": "transferOwnership",
      "outputs": [],
      "stateMutability": "nonpayable",
      "type": "function"
    },
    {
      "inputs": [
        {
          "components": [
            {
              "components": [
                {
                  "internalType": "uint64",
                  "name": "timestampNs",
                  "type": "uint64"
                },
                {
                  "internalType": "int192",
                  "name": "quantizedValue",
                  "type": "int192"
                }
              ],
              "internalType": "struct FirstPartyStorkStructs.TemporalNumericValue",
              "name": "temporalNumericValue",
              "type": "tuple"
            },
            {
              "internalType": "address",
              "name": "pubKey",
              "type": "address"
            },
            {
              "internalType": "string",
              "name": "assetPairId",
              "type": "string"
            },
            {
              "internalType": "bool",
              "name": "storeHistorical",
              "type": "bool"
            },
            {
              "internalType": "bytes32",
              "name": "r",
              "type": "bytes32"
            },
            {
              "internalType": "bytes32",
              "name": "s",
              "type": "bytes32"
            },
            {
              "internalType": "uint8",
              "name": "v",
              "type": "uint8"
            }
          ],
          "internalType": "struct FirstPartyStorkStructs.PublisherTemporalNumericValueInput[]",
          "name": "updateData",
          "type": "tuple[]"
        }
      ],
      "name": "updateTemporalNumericValues",
      "outputs": [],
      "stateMutability": "payable",
      "type": "function"
    },
    {
      "inputs": [
        {
          "internalType": "address",
          "name": "newImplementation",
          "type": "address"
        },
        {
          "internalType": "bytes",
          "name": "data",
          "type": "bytes"
        }
      ],
      "name": "upgradeToAndCall",
      "outputs": [],
      "stateMutability": "payable",
      "type": "function"
    },
    {
      "inputs": [
        {
          "internalType": "address",
          "name": "publisherPubKey",
          "type": "address"
        },
        {
          "internalType": "string",
          "name": "assetPairId",
          "type": "string"
        },
        {
          "internalType": "uint256",
          "name": "timestamp",
          "type": "uint256"
        },
        {
          "internalType": "int256",
          "name": "value",
          "type": "int256"
        },
        {
          "internalType": "bytes32",
          "name": "r",
          "type": "bytes32"
        },
        {
          "internalType": "bytes32",
          "name": "s",
          "type": "bytes32"
        },
        {
          "internalType": "uint8",
          "name": "v",
          "type": "uint8"
        }
      ],
      "name": "verifyPublisherSignatureV1",
      "outputs": [
        {
          "internalType": "bool",
          "name": "",
          "type": "bool"
        }
      ],
      "stateMutability": "pure",
      "type": "function"
    }
  ],
  "bytecode": "0x60a060405230608052348015610013575f5ffd5b5061001c610021565b6100d3565b7ff0c57e16840df040f15088dc2f81fe391c3923bec73e23a9662efc9c229c6a00805468010000000000000000900460ff16156100715760405163f92ee8a960e01b815260040160405180910390fd5b80546001600160401b03908116146100d05780546001600160401b0319166001600160401b0390811782556040519081527fc7f505b2f371ae2175ee4913f4499e1f2633a7b5936321eed1cdaeb6115181d29060200160405180910390a15b50565b608051611d676100f95f395f8181610ec901528181610ef201526110360152611d675ff3fe608060405260043610610126575f3560e01c806379ba5097116100a8578063ad3cb1cc1161006d578063ad3cb1cc1461033f578063b7f165671461037c578063c4d66de81461039b578063e30c3978146103ba578063ea419887146103ce578063f2fde38b146103ed575f5ffd5b806379ba50971461029257806387159c97146102a65780638b55ecc0146102c55780638da5cb5b146102e45780639bccd2d514610310575f5ffd5b80634f1ef286116100ee5780634f1ef2861461021957806352d1902d1461022c578063543b2fc114610240578063714fbcad1461025f578063715018a61461027e575f5ffd5b80632651ad061461012a57806338a3f02f146101755780633d57a2941461018a57806344bae290146101cd578063488487a9146101fa575b5f5ffd5b348015610135575f5ffd5b506101496101443660046117ad565b61040c565b6040805182516001600160401b0316815260209283015160170b92810192909252015b60405180910390f35b610188610183366004611800565b6104e1565b005b348015610195575f5ffd5b506101a96101a436600461186f565b610628565b6040805182516001600160a01b03168152602092830151928101929092520161016c565b3480156101d8575f5ffd5b506101ec6101e736600461186f565b6106ae565b60405190815260200161016c565b348015610205575f5ffd5b5061018861021436600461186f565b6106c2565b610188610227366004611888565b6106d6565b348015610237575f5ffd5b506101ec6106f5565b34801561024b575f5ffd5b506101ec61025a3660046118e5565b610710565b34801561026a575f5ffd5b50610188610279366004611925565b610747565b348015610289575f5ffd5b50610188610759565b34801561029d575f5ffd5b506101886107c0565b3480156102b1575f5ffd5b506101ec6102c0366004611800565b610805565b3480156102d0575f5ffd5b506101ec6102df36600461194d565b61086b565b3480156102ef575f5ffd5b506102f861089a565b6040516001600160a01b03909116815260200161016c565b34801561031b575f5ffd5b5061032f61032a366004611996565b6108ce565b604051901515815260200161016c565b34801561034a575f5ffd5b5061036f604051806040016040528060058152602001640352e302e360dc1b81525081565b60405161016c9190611a42565b348015610387575f5ffd5b506101ec6103963660046118e5565b610923565b3480156103a6575f5ffd5b506101886103b536600461186f565b610959565b3480156103c5575f5ffd5b506102f8610a58565b3480156103d9575f5ffd5b506101496103e83660046118e5565b610a80565b3480156103f8575f5ffd5b5061018861040736600461186f565b610b38565b604080518082019091525f80825260208201525f6104298461086b565b6001600160a01b0386165f908152600160209081526040808320848452909152902054909150831061046e5760405163c5723b5160e01b815260040160405180910390fd5b6001600160a01b0385165f90815260016020908152604080832084845290915290208054849081106104a2576104a2611a54565b5f918252602091829020604080518082019091529101546001600160401b0381168252600160401b900460170b918101919091529150505b9392505050565b5f80805b838110156105dd575f85858381811061050057610500611a54565b90506020028101906105129190611a68565b61051b90611b06565b90505f61055a82602001518360400151845f01515f01516001600160401b0316855f01516020015160170b86608001518760a001518860c001516108ce565b90508061057a57604051638baa579f60e01b815260040160405180910390fd5b5f610589836020015184610bbd565b905080156105b8578561059b81611bb6565b9650506105ab83602001516106ae565b6105b59086611bd6565b94505b8260600151156105d2576105d0836020015184610cd2565b505b5050506001016104e5565b508161ffff165f0361060257604051636f162bfd60e11b815260040160405180910390fd5b803410156106225760405162976f7560e21b815260040160405180910390fd5b50505050565b604080518082019091525f80825260208201526001600160a01b038281165f90815260036020526040902054166106725760405163c5723b5160e01b815260040160405180910390fd5b506001600160a01b039081165f908152600360209081526040918290208251808401909352805490931682526001909201549181019190915290565b5f6106b882610628565b6020015192915050565b6106ca610e36565b6106d381610e6a565b50565b6106de610ebe565b6106e782610f62565b6106f18282610f6a565b5050565b5f6106fe61102b565b505f516020611d125f395f51905f5290565b5f5f61071b8361086b565b6001600160a01b0385165f90815260016020908152604080832093835292905220549150505b92915050565b61074f610e36565b6106f18282611074565b610761610e36565b60405162461bcd60e51b815260206004820152602960248201527f4f776e61626c653a2072656e6f756e63696e67206f776e65727368697020697360448201526808191a5cd8589b195960ba1b60648201526084015b60405180910390fd5b33806107ca610a58565b6001600160a01b0316146107fc5760405163118cdaa760e01b81526001600160a01b03821660048201526024016107b7565b6106d3816110f5565b5f80805b83811015610863575f85858381811061082457610824611a54565b90506020028101906108369190611a68565b61083f90611b06565b905061084e81602001516106ae565b6108589084611bd6565b925050600101610809565b509392505050565b5f8160405160200161087d9190611c00565b604051602081830303815290604052805190602001209050919050565b5f807f9016d09d72d40fdae2fd8ceac6b6234c7706214fd39c1cd1e609a0528c1993005b546001600160a01b031692915050565b5f806108e989896108e3633b9aca008b611c0b565b8961112d565b90505f6108f582611165565b90505f61090482888888611198565b6001600160a01b03908116908c16149350505050979650505050505050565b5f5f61092e8361086b565b6001600160a01b0385165f908152600260209081526040808320938352929052205491505092915050565b5f6109626111e5565b805490915060ff600160401b82041615906001600160401b03165f811580156109885750825b90505f826001600160401b031660011480156109a35750303b155b9050811580156109b1575080155b156109cf5760405163f92ee8a960e01b815260040160405180910390fd5b845467ffffffffffffffff1916600117855583156109f957845460ff60401b1916600160401b1785555b610a028661120d565b610a0a61121e565b8315610a5057845460ff60401b19168555604051600181527fc7f505b2f371ae2175ee4913f4499e1f2633a7b5936321eed1cdaeb6115181d29060200160405180910390a15b505050505050565b5f807f237e158222e3e6968b72b9db0d8043aacf074ad9f650f0d1606b4d82ee432c006108be565b604080518082019091525f80825260208201525f610a9d8361086b565b6001600160a01b0385165f908152602081815260408083208484529091528120549192506001600160401b039091169003610aeb5760405163c5723b5160e01b815260040160405180910390fd5b6001600160a01b0384165f90815260208181526040808320938352928152908290208251808401909352546001600160401b0381168352600160401b900460170b90820152905092915050565b610b40610e36565b7f237e158222e3e6968b72b9db0d8043aacf074ad9f650f0d1606b4d82ee432c0080546001600160a01b0319166001600160a01b0383169081178255610b8461089a565b6001600160a01b03167f38d16b8cac22d99fc7c124b9cd0de2d3fa1faef420bfe791d8c362d765e2270060405160405180910390a35050565b5f5f610bcc836040015161086b565b6001600160a01b0385165f908152602081815260408083208484529091529020548451519192506001600160401b039081169116811115610c11575f92505050610741565b83516001600160a01b0386165f90815260208181526040808320868452825291829020835191909301516001600160c01b0316600160401b026001600160401b0390911617909155808501519051610c699190611c00565b6040518091039020856001600160a01b03167f46d024811141031367a30ae1537a4926a0d8d76d60b24c8ce4822badc32bb3ae8660400151875f01515f0151885f015160200151604051610cbf93929190611c2a565b60405180910390a3506001949350505050565b5f5f610ce1836040015161086b565b6001600160a01b0385165f908152602081815260408083208484529091529020548451519192506001600160401b039081169116811115610d26575f92505050610741565b6001600160a01b0385165f8181526001602081815260408084208785528252808420815180830183528a51516001600160401b0390811682528b5185015160170b82860190815283549687018455928752848720915192516001600160c01b0316600160401b0292169190911793019290925592825260028352808220858352909252908120805491610db883611c5e565b91905055508360400151604051610dcf9190611c00565b6040805191829003822086820151875180516020918201516001600160a01b038c165f818152600285528781208b8252909452959092205493957ff79cb86aaf7f25d05a585f46998de53e76a79160b4eefb4c7773b7145e9b175194610cbf949391611c76565b33610e3f61089a565b6001600160a01b031614610e685760405163118cdaa760e01b81523360048201526024016107b7565b565b6001600160a01b0381165f8181526003602052604080822080546001600160a01b0319168155600101829055517fde37507a2967feaf95649773534bddc03d153af2b26b9ea17cdb9b62c5bbf18e9190a250565b306001600160a01b037f0000000000000000000000000000000000000000000000000000000000000000161480610f4457507f00000000000000000000000000000000000000000000000000000000000000006001600160a01b0316610f385f516020611d125f395f51905f52546001600160a01b031690565b6001600160a01b031614155b15610e685760405163703e46dd60e11b815260040160405180910390fd5b6106d3610e36565b816001600160a01b03166352d1902d6040518163ffffffff1660e01b8152600401602060405180830381865afa925050508015610fc4575060408051601f3d908101601f19168201909252610fc191810190611cb0565b60015b610fec57604051634c9c8ce360e01b81526001600160a01b03831660048201526024016107b7565b5f516020611d125f395f51905f52811461101c57604051632a87526960e21b8152600481018290526024016107b7565b6110268383611226565b505050565b306001600160a01b037f00000000000000000000000000000000000000000000000000000000000000001614610e685760405163703e46dd60e11b815260040160405180910390fd5b6040805180820182526001600160a01b0384811680835260208084018681525f83815260038352869020945185546001600160a01b03191694169390931784559151600190930192909255915183815290917f99d8764b5ae5766702a4ec20b7a7c9afdb8827250795c8937679c91f91696ffd910160405180910390a25050565b7f237e158222e3e6968b72b9db0d8043aacf074ad9f650f0d1606b4d82ee432c0080546001600160a01b03191681556106f18261127b565b5f848484846040516020016111459493929190611cc7565b604051602081830303815290604052805190602001209050949350505050565b7f19457468657265756d205369676e6564204d6573736167653a0a3332000000005f908152601c829052603c8120610741565b604080516020810185905280820184905260f883901b6001600160f81b03191660608201528151604181830301815260619091019091525f906111db86826112eb565b9695505050505050565b5f807ff0c57e16840df040f15088dc2f81fe391c3923bec73e23a9662efc9c229c6a00610741565b611215611313565b6106d381611338565b610e68611313565b61122f82611369565b6040516001600160a01b038316907fbc7cd75a20ee27fd9adebab32041f755214dbc6bffa90cc0225b39da2e5c2d3b905f90a28051156112735761102682826113cc565b6106f161143e565b7f9016d09d72d40fdae2fd8ceac6b6234c7706214fd39c1cd1e609a0528c19930080546001600160a01b031981166001600160a01b03848116918217845560405192169182907f8be0079c531659141344cd1fd0a4f28419497f9722a3daafe3b4186f6b6457e0905f90a3505050565b5f5f5f5f6112f9868661145d565b92509250925061130982826114a6565b5090949350505050565b61131b61155e565b610e6857604051631afcd79f60e31b815260040160405180910390fd5b611340611313565b6001600160a01b0381166107fc57604051631e4fbdf760e01b81525f60048201526024016107b7565b806001600160a01b03163b5f0361139e57604051634c9c8ce360e01b81526001600160a01b03821660048201526024016107b7565b5f516020611d125f395f51905f5280546001600160a01b0319166001600160a01b0392909216919091179055565b60605f5f846001600160a01b0316846040516113e89190611c00565b5f60405180830381855af49150503d805f8114611420576040519150601f19603f3d011682016040523d82523d5f602084013e611425565b606091505b5091509150611435858383611577565b95945050505050565b3415610e685760405163b398979f60e01b815260040160405180910390fd5b5f5f5f8351604103611494576020840151604085015160608601515f1a611486888285856115d3565b95509550955050505061149f565b505081515f91506002905b9250925092565b5f8260038111156114b9576114b9611cfd565b036114c2575050565b60018260038111156114d6576114d6611cfd565b036114f45760405163f645eedf60e01b815260040160405180910390fd5b600282600381111561150857611508611cfd565b036115295760405163fce698f760e01b8152600481018290526024016107b7565b600382600381111561153d5761153d611cfd565b036106f1576040516335e2f38360e21b8152600481018290526024016107b7565b5f6115676111e5565b54600160401b900460ff16919050565b60608261158c576115878261169b565b6104da565b81511580156115a357506001600160a01b0384163b155b156115cc57604051639996b31560e01b81526001600160a01b03851660048201526024016107b7565b50806104da565b5f80807f7fffffffffffffffffffffffffffffff5d576e7357a4501ddfe92f46681b20a084111561160c57505f91506003905082611691565b604080515f808252602082018084528a905260ff891692820192909252606081018790526080810186905260019060a0016020604051602081039080840390855afa15801561165d573d5f5f3e3d5ffd5b5050604051601f1901519150506001600160a01b03811661168857505f925060019150829050611691565b92505f91508190505b9450945094915050565b8051156116aa57805160208201fd5b60405163d6bda27560e01b815260040160405180910390fd5b80356001600160a01b03811681146116d9575f5ffd5b919050565b634e487b7160e01b5f52604160045260245ffd5b60405160e081016001600160401b0381118282101715611714576117146116de565b60405290565b5f5f6001600160401b03841115611733576117336116de565b50604051601f19601f85018116603f011681018181106001600160401b0382111715611761576117616116de565b604052838152905080828401851015611778575f5ffd5b838360208301375f60208583010152509392505050565b5f82601f83011261179e575f5ffd5b6104da8383356020850161171a565b5f5f5f606084860312156117bf575f5ffd5b6117c8846116c3565b925060208401356001600160401b038111156117e2575f5ffd5b6117ee8682870161178f565b93969395505050506040919091013590565b5f5f60208385031215611811575f5ffd5b82356001600160401b03811115611826575f5ffd5b8301601f81018513611836575f5ffd5b80356001600160401b0381111561184b575f5ffd5b8560208260051b840101111561185f575f5ffd5b6020919091019590945092505050565b5f6020828403121561187f575f5ffd5b6104da826116c3565b5f5f60408385031215611899575f5ffd5b6118a2836116c3565b915060208301356001600160401b038111156118bc575f5ffd5b8301601f810185136118cc575f5ffd5b6118db8582356020840161171a565b9150509250929050565b5f5f604083850312156118f6575f5ffd5b6118ff836116c3565b915060208301356001600160401b03811115611919575f5ffd5b6118db8582860161178f565b5f5f60408385031215611936575f5ffd5b61193f836116c3565b946020939093013593505050565b5f6020828403121561195d575f5ffd5b81356001600160401b03811115611972575f5ffd5b61197e8482850161178f565b949350505050565b803560ff811681146116d9575f5ffd5b5f5f5f5f5f5f5f60e0888a0312156119ac575f5ffd5b6119b5886116c3565b965060208801356001600160401b038111156119cf575f5ffd5b6119db8a828b0161178f565b96505060408801359450606088013593506080880135925060a08801359150611a0660c08901611986565b905092959891949750929550565b5f81518084528060208401602086015e5f602082860101526020601f19601f83011685010191505092915050565b602081525f6104da6020830184611a14565b634e487b7160e01b5f52603260045260245ffd5b5f823560fe19833603018112611a7c575f5ffd5b9190910192915050565b5f60408284031215611a96575f5ffd5b604080519081016001600160401b0381118282101715611ab857611ab86116de565b60405290508082356001600160401b0381168114611ad4575f5ffd5b81526020830135601781900b8114611aea575f5ffd5b6020919091015292915050565b803580151581146116d9575f5ffd5b5f6101008236031215611b17575f5ffd5b611b1f6116f2565b611b293684611a86565b8152611b37604084016116c3565b602082015260608301356001600160401b03811115611b54575f5ffd5b611b603682860161178f565b604083015250611b7260808401611af7565b606082015260a083810135608083015260c084013590820152611b9760e08401611986565b60c082015292915050565b634e487b7160e01b5f52601160045260245ffd5b5f61ffff821661ffff8103611bcd57611bcd611ba2565b60010192915050565b8082018082111561074157610741611ba2565b5f81518060208401855e5f93019283525090919050565b5f6104da8284611be9565b5f82611c2557634e487b7160e01b5f52601260045260245ffd5b500490565b606081525f611c3c6060830186611a14565b90506001600160401b03841660208301528260170b6040830152949350505050565b5f60018201611c6f57611c6f611ba2565b5060010190565b608081525f611c886080830187611a14565b6001600160401b039590951660208301525060179290920b6040830152606090910152919050565b5f60208284031215611cc0575f5ffd5b5051919050565b6bffffffffffffffffffffffff198560601b1681525f611cea6014830186611be9565b9384525050602082015260400192915050565b634e487b7160e01b5f52602160045260245ffdfe360894a13ba1a3210667c828492db98dca3e2076cc3735a920a3ca505d382bbca26469706673582212206b0490e32187e08eeb925b7a6c852c545458df3950c085127f6bc8fac53fc13664736f6c634300081c0033",
  "linkReferences": {},
  "deployedLinkReferences": {},
  "immutableReferences": {
    "619": [
      {
        "length": 32,
        "start": 3785
      },
      {
        "length": 32,
        "start": 3826
      },
      {
        "length": 32,
        "start": 4150
      }
    ]
  },
  "inputSourceName": "project/contracts/UpgradeableFirstPartyStork.sol",
  "buildInfoId": "solc-0_8_28-89c9025e6c7b73b8cb3d61a60c85dc7eca2a859d"
}