{
  "_format": "hh3-artifact-1",
  "contractName": "UpgradeableFirstPartyStork",
  "sourceName": "contracts/UpgradeableFirstPartyStork.sol",
  "abi": [
    {
      "inputs": [],
      "stateMutability": "nonpayable",
      "type": "constructor"
    },
    {
      "inputs": [
        {
          "internalType": "address",
          "name": "target",
          "type": "address"
        }
      ],
      "name": "AddressEmptyCode",
      "type": "error"
    },
    {
      "inputs": [],
      "name": "ECDSAInvalidSignature",
      "type": "error"
    },
    {
      "inputs": [
        {
          "internalType": "uint256",
          "name": "length",
          "type": "uint256"
        }
      ],
      "name": "ECDSAInvalidSignatureLength",
      "type": "error"
    },
    {
      "inputs": [
        {
          "internalType": "bytes32",
          "name": "s",
          "type": "bytes32"
        }
      ],
      "name": "ECDSAInvalidSignatureS",
      "type": "error"
    },
    {
      "inputs": [
        {
          "internalType": "address",
          "name": "implementation",
          "type": "address"
        }
      ],
      "name": "ERC1967InvalidImplementation",
      "type": "error"
    },
    {
      "inputs": [],
      "name": "ERC1967NonPayable",
      "type": "error"
    },
    {
      "inputs": [],
      "name": "FailedCall",
      "type": "error"
    },
    {
      "inputs": [],
      "name": "InsufficientFee",
      "type": "error"
    },
    {
      "inputs": [],
      "name": "InvalidInitialization",
      "type": "error"
    },
    {
      "inputs": [],
      "name": "InvalidSignature",
      "type": "error"
    },
    {
      "inputs": [],
      "name": "NoFreshUpdate",
      "type": "error"
    },
    {
      "inputs": [],
      "name": "NotFound",
      "type": "error"
    },
    {
      "inputs": [],
      "name": "NotInitializing",
      "type": "error"
    },
    {
      "inputs": [
        {
          "internalType": "address",
          "name": "owner",
          "type": "address"
        }
      ],
      "name": "OwnableInvalidOwner",
      "type": "error"
    },
    {
      "inputs": [
        {
          "internalType": "address",
          "name": "account",
          "type": "address"
        }
      ],
      "name": "OwnableUnauthorizedAccount",
      "type": "error"
    },
    {
      "inputs": [],
      "name": "UUPSUnauthorizedCallContext",
      "type": "error"
    },
    {
      "inputs": [
        {
          "internalType": "bytes32",
          "name": "slot",
          "type": "bytes32"
        }
      ],
      "name": "UUPSUnsupportedProxiableUUID",
      "type": "error"
    },
    {
      "anonymous": false,
      "inputs": [
        {
          "indexed": true,
          "internalType": "address",
          "name": "pubKey",
          "type": "address"
        },
        {
          "indexed": true,
          "internalType": "string",
          "name": "assetId",
          "type": "string"
        },
        {
          "indexed": false,
          "internalType": "uint64",
          "name": "timestampNs",
          "type": "uint64"
        },
        {
          "indexed": false,
          "internalType": "int192",
          "name": "quantizedValue",
          "type": "int192"
        },
        {
          "indexed": false,
          "internalType": "uint256",
          "name": "roundId",
          "type": "uint256"
        }
      ],
      "name": "HistoricalValueStored",
      "type": "event"
    },
    {
      "anonymous": false,
      "inputs": [
        {
          "indexed": false,
          "internalType": "uint64",
          "name": "version",
          "type": "uint64"
        }
      ],
      "name": "Initialized",
      "type": "event"
    },
    {
      "anonymous": false,
      "inputs": [
        {
          "indexed": true,
          "internalType": "address",
          "name": "previousOwner",
          "type": "address"
        },
        {
          "indexed": true,
          "internalType": "address",
          "name": "newOwner",
          "type": "address"
        }
      ],
      "name": "OwnershipTransferStarted",
      "type": "event"
    },
    {
      "anonymous": false,
      "inputs": [
        {
          "indexed": true,
          "internalType": "address",
          "name": "previousOwner",
          "type": "address"
        },
        {
          "indexed": true,
          "internalType": "address",
          "name": "newOwner",
          "type": "address"
        }
      ],
      "name": "OwnershipTransferred",
      "type": "event"
    },
    {
      "anonymous": false,
      "inputs": [
        {
          "indexed": true,
          "internalType": "address",
          "name": "pubKey",
          "type": "address"
        },
        {
          "indexed": false,
          "internalType": "uint256",
          "name": "singleUpdateFee",
          "type": "uint256"
        }
      ],
      "name": "PublisherUserAdded",
      "type": "event"
    },
    {
      "anonymous": false,
      "inputs": [
        {
          "indexed": true,
          "internalType": "address",
          "name": "pubKey",
          "type": "address"
        }
      ],
      "name": "PublisherUserRemoved",
      "type": "event"
    },
    {
      "anonymous": false,
      "inputs": [
        {
          "indexed": true,
          "internalType": "address",
          "name": "implementation",
          "type": "address"
        }
      ],
      "name": "Upgraded",
      "type": "event"
    },
    {
      "anonymous": false,
      "inputs": [
        {
          "indexed": true,
          "internalType": "address",
          "name": "pubKey",
          "type": "address"
        },
        {
          "indexed": true,
          "internalType": "string",
          "name": "assetId",
          "type": "string"
        },
        {
          "indexed": false,
          "internalType": "uint64",
          "name": "timestampNs",
          "type": "uint64"
        },
        {
          "indexed": false,
          "internalType": "int192",
          "name": "quantizedValue",
          "type": "int192"
        }
      ],
      "name": "ValueUpdate",
      "type": "event"
    },
    {
      "inputs": [],
      "name": "UPGRADE_INTERFACE_VERSION",
      "outputs": [
        {
          "internalType": "string",
          "name": "",
          "type": "string"
        }
      ],
      "stateMutability": "view",
      "type": "function"
    },
    {
      "inputs": [],
      "name": "acceptOwnership",
      "outputs": [],
      "stateMutability": "nonpayable",
      "type": "function"
    },
    {
      "inputs": [
        {
          "internalType": "address",
          "name": "pubKey",
          "type": "address"
        },
        {
          "internalType": "uint256",
          "name": "singleUpdateFee",
          "type": "uint256"
        }
      ],
      "name": "createPublisherUser",
      "outputs": [],
      "stateMutability": "nonpayable",
      "type": "function"
    },
    {
      "inputs": [
        {
          "internalType": "address",
          "name": "pubKey",
          "type": "address"
        }
      ],
      "name": "deletePublisherUser",
      "outputs": [],
      "stateMutability": "nonpayable",
      "type": "function"
    },
    {
      "inputs": [
        {
          "internalType": "address",
          "name": "pubKey",
          "type": "address"
        },
        {
          "internalType": "string",
          "name": "assetPairId",
          "type": "string"
        }
      ],
      "name": "getCurrentRoundId",
      "outputs": [
        {
          "internalType": "uint256",
          "name": "",
          "type": "uint256"
        }
      ],
      "stateMutability": "view",
      "type": "function"
    },
    {
      "inputs": [
        {
          "internalType": "address",
          "name": "pubKey",
          "type": "address"
        },
        {
          "internalType": "string",
          "name": "assetPairId",
          "type": "string"
        }
      ],
      "name": "getHistoricalRecordsCount",
      "outputs": [
        {
          "internalType": "uint256",
          "name": "",
          "type": "uint256"
        }
      ],
      "stateMutability": "view",
      "type": "function"
    },
    {
      "inputs": [
        {
          "internalType": "address",
          "name": "pubKey",
          "type": "address"
        },
        {
          "internalType": "string",
          "name": "assetPairId",
          "type": "string"
        },
        {
          "internalType": "uint256",
          "name": "roundId",
          "type": "uint256"
        }
      ],
      "name": "getHistoricalTemporalNumericValue",
      "outputs": [
        {
          "components": [
            {
              "internalType": "uint64",
              "name": "timestampNs",
              "type": "uint64"
            },
            {
              "internalType": "int192",
              "name": "quantizedValue",
              "type": "int192"
            }
          ],
          "internalType": "struct FirstPartyStorkStructs.TemporalNumericValue",
          "name": "",
          "type": "tuple"
        }
      ],
      "stateMutability": "view",
      "type": "function"
    },
    {
      "inputs": [
        {
          "internalType": "address",
          "name": "pubKey",
          "type": "address"
        },
        {
          "internalType": "string",
          "name": "assetPairId",
          "type": "string"
        }
      ],
      "name": "getLatestTemporalNumericValue",
      "outputs": [
        {
          "components": [
            {
              "internalType": "uint64",
              "name": "timestampNs",
              "type": "uint64"
            },
            {
              "internalType": "int192",
              "name": "quantizedValue",
              "type": "int192"
            }
          ],
          "internalType": "struct FirstPartyStorkStructs.TemporalNumericValue",
          "name": "value",
          "type": "tuple"
        }
      ],
      "stateMutability": "view",
      "type": "function"
    },
    {
      "inputs": [
        {
          "internalType": "address",
          "name": "pubKey",
          "type": "address"
        }
      ],
      "name": "getPublisherUser",
      "outputs": [
        {
          "components": [
            {
              "internalType": "address",
              "name": "pubKey",
              "type": "address"
            },
            {
              "internalType": "uint256",
              "name": "singleUpdateFee",
              "type": "uint256"
            }
          ],
          "internalType": "struct FirstPartyStorkStructs.PublisherUser",
          "name": "",
          "type": "tuple"
        }
      ],
      "stateMutability": "view",
      "type": "function"
    },
    {
      "inputs": [
        {
          "internalType": "address",
          "name": "initialOwner",
          "type": "address"
        }
      ],
      "name": "initialize",
      "outputs": [],
      "stateMutability": "nonpayable",
      "type": "function"
    },
    {
      "inputs": [],
      "name": "owner",
      "outputs": [
        {
          "internalType": "address",
          "name": "",
          "type": "address"
        }
      ],
      "stateMutability": "view",
      "type": "function"
    },
    {
      "inputs": [],
      "name": "pendingOwner",
      "outputs": [
        {
          "internalType": "address",
          "name": "",
          "type": "address"
        }
      ],
      "stateMutability": "view",
      "type": "function"
    },
    {
      "inputs": [],
      "name": "proxiableUUID",
      "outputs": [
        {
          "internalType": "bytes32",
          "name": "",
          "type": "bytes32"
        }
      ],
      "stateMutability": "view",
      "type": "function"
    },
    {
      "inputs": [],
      "name": "renounceOwnership",
      "outputs": [],
      "stateMutability": "nonpayable",
      "type": "function"
    },
    {
      "inputs": [
        {
          "internalType": "address",
          "name": "newOwner",
          "type": "address"
        }
      ],
      "name": "transferOwnership",
      "outputs": [],
      "stateMutability": "nonpayable",
      "type": "function"
    },
    {
      "inputs": [
        {
          "components": [
            {
              "components": [
                {
                  "internalType": "uint64",
                  "name": "timestampNs",
                  "type": "uint64"
                },
                {
                  "internalType": "int192",
                  "name": "quantizedValue",
                  "type": "int192"
                }
              ],
              "internalType": "struct FirstPartyStorkStructs.TemporalNumericValue",
              "name": "temporalNumericValue",
              "type": "tuple"
            },
            {
              "internalType": "address",
              "name": "pubKey",
              "type": "address"
            },
            {
              "internalType": "string",
              "name": "assetPairId",
              "type": "string"
            },
            {
              "internalType": "bytes32",
              "name": "r",
              "type": "bytes32"
            },
            {
              "internalType": "bytes32",
              "name": "s",
              "type": "bytes32"
            },
            {
              "internalType": "uint8",
              "name": "v",
              "type": "uint8"
            }
          ],
          "internalType": "struct FirstPartyStorkStructs.PublisherTemporalNumericValueInput[]",
          "name": "updateData",
          "type": "tuple[]"
        },
        {
          "internalType": "bool",
          "name": "storeHistoric",
          "type": "bool"
        }
      ],
      "name": "updateTemporalNumericValues",
      "outputs": [],
      "stateMutability": "payable",
      "type": "function"
    },
    {
      "inputs": [
        {
          "internalType": "address",
          "name": "newImplementation",
          "type": "address"
        },
        {
          "internalType": "bytes",
          "name": "data",
          "type": "bytes"
        }
      ],
      "name": "upgradeToAndCall",
      "outputs": [],
      "stateMutability": "payable",
      "type": "function"
    },
    {
      "inputs": [
        {
          "internalType": "address",
          "name": "oraclePubKey",
          "type": "address"
        },
        {
          "internalType": "string",
          "name": "assetPairId",
          "type": "string"
        },
        {
          "internalType": "uint256",
          "name": "timestamp",
          "type": "uint256"
        },
        {
          "internalType": "int256",
          "name": "value",
          "type": "int256"
        },
        {
          "internalType": "bytes32",
          "name": "r",
          "type": "bytes32"
        },
        {
          "internalType": "bytes32",
          "name": "s",
          "type": "bytes32"
        },
        {
          "internalType": "uint8",
          "name": "v",
          "type": "uint8"
        }
      ],
      "name": "verifyPublisherSignatureV1",
      "outputs": [
        {
          "internalType": "bool",
          "name": "",
          "type": "bool"
        }
      ],
      "stateMutability": "pure",
      "type": "function"
    }
  ],
  "bytecode": "0x60a060405230608052348015610013575f5ffd5b5061001c610021565b6100d3565b7ff0c57e16840df040f15088dc2f81fe391c3923bec73e23a9662efc9c229c6a00805468010000000000000000900460ff16156100715760405163f92ee8a960e01b815260040160405180910390fd5b80546001600160401b03908116146100d05780546001600160401b0319166001600160401b0390811782556040519081527fc7f505b2f371ae2175ee4913f4499e1f2633a7b5936321eed1cdaeb6115181d29060200160405180910390a15b50565b608051611c5c6100f95f395f8181610e8501528181610eae0152610ff20152611c5c5ff3fe608060405260043610610105575f3560e01c806379ba509711610092578063b7f1656711610062578063b7f16567146102fe578063c4d66de81461031d578063e30c39781461033c578063ea41988714610350578063f2fde38b1461036f575f5ffd5b806379ba5097146102525780638da5cb5b146102665780639bccd2d514610292578063ad3cb1cc146102c1575f5ffd5b80634f1ef286116100d85780634f1ef286146101cb57806352d1902d146101de578063543b2fc114610200578063714fbcad1461021f578063715018a61461023e575f5ffd5b806325ae409f146101095780632651ad061461011e5780633d57a29414610169578063488487a9146101ac575b5f5ffd5b61011c61011736600461167f565b61038e565b005b348015610129575f5ffd5b5061013d61013836600461180f565b6104df565b6040805182516001600160401b0316815260209283015160170b92810192909252015b60405180910390f35b348015610174575f5ffd5b50610188610183366004611862565b6105ca565b6040805182516001600160a01b031681526020928301519281019290925201610160565b3480156101b7575f5ffd5b5061011c6101c6366004611862565b610650565b61011c6101d936600461187b565b610664565b3480156101e9575f5ffd5b506101f2610683565b604051908152602001610160565b34801561020b575f5ffd5b506101f261021a3660046118d8565b61069e565b34801561022a575f5ffd5b5061011c610239366004611918565b6106dc565b348015610249575f5ffd5b5061011c6106ee565b34801561025d575f5ffd5b5061011c610755565b348015610271575f5ffd5b5061027a61079a565b6040516001600160a01b039091168152602001610160565b34801561029d575f5ffd5b506102b16102ac366004611950565b6107ce565b6040519015158152602001610160565b3480156102cc575f5ffd5b506102f1604051806040016040528060058152602001640352e302e360dc1b81525081565b60405161016091906119ce565b348015610309575f5ffd5b506101f26103183660046118d8565b610823565b348015610328575f5ffd5b5061011c610337366004611862565b61085f565b348015610347575f5ffd5b5061027a61095e565b34801561035b575f5ffd5b5061013d61036a3660046118d8565b610986565b34801561037a575f5ffd5b5061011c610389366004611862565b610a59565b5f80805b84811015610493575f8686838181106103ad576103ad611a03565b90506020028101906103bf9190611a17565b6103c890611a35565b90505f6103d882602001516105ca565b90505f61041783602001518460400151855f01515f01516001600160401b0316865f01516020015160170b876060015188608001518960a001516107ce565b90508061043757604051638baa579f60e01b815260040160405180910390fd5b5f610446846020015185610ade565b9050801561045c578661045881611b19565b9750505b871561047257610470846020015185610c15565b505b60208301516104819087611b39565b95505060019093019250610392915050565b508161ffff165f036104b857604051636f162bfd60e11b815260040160405180910390fd5b803410156104d85760405162976f7560e21b815260040160405180910390fd5b5050505050565b604080518082019091525f80825260208201526001600160a01b0384165f90815260016020526040908190209051610518908590611b63565b9081526040519081900360200190205482106105475760405163c5723b5160e01b815260040160405180910390fd5b6001600160a01b0384165f9081526001602052604090819020905161056d908590611b63565b9081526020016040518091039020828154811061058c5761058c611a03565b5f918252602091829020604080518082019091529101546001600160401b0381168252600160401b900460170b9181019190915290505b9392505050565b604080518082019091525f80825260208201526001600160a01b038281165f90815260036020526040902054166106145760405163c5723b5160e01b815260040160405180910390fd5b506001600160a01b039081165f908152600360209081526040918290208251808401909352805490931682526001909201549181019190915290565b610658610df2565b61066181610e26565b50565b61066c610e7a565b61067582610f1e565b61067f8282610f26565b5050565b5f61068c610fe7565b505f516020611c075f395f51905f5290565b6001600160a01b0382165f9081526001602052604080822090516106c3908490611b63565b9081526040519081900360200190205490505b92915050565b6106e4610df2565b61067f8282611030565b6106f6610df2565b60405162461bcd60e51b815260206004820152602960248201527f4f776e61626c653a2072656e6f756e63696e67206f776e65727368697020697360448201526808191a5cd8589b195960ba1b60648201526084015b60405180910390fd5b338061075f61095e565b6001600160a01b0316146107915760405163118cdaa760e01b81526001600160a01b038216600482015260240161074c565b610661816110b1565b5f807f9016d09d72d40fdae2fd8ceac6b6234c7706214fd39c1cd1e609a0528c1993005b546001600160a01b031692915050565b5f806107e989896107e3633b9aca008b611b6e565b896110e9565b90505f6107f582611121565b90505f61080482888888611154565b6001600160a01b03908116908c16149350505050979650505050505050565b6001600160a01b0382165f908152600260205260408082209051610848908490611b63565b908152602001604051809103902054905092915050565b5f6108686111a1565b805490915060ff600160401b82041615906001600160401b03165f8115801561088e5750825b90505f826001600160401b031660011480156108a95750303b155b9050811580156108b7575080155b156108d55760405163f92ee8a960e01b815260040160405180910390fd5b845467ffffffffffffffff1916600117855583156108ff57845460ff60401b1916600160401b1785555b610908866111c9565b6109106111da565b831561095657845460ff60401b19168555604051600181527fc7f505b2f371ae2175ee4913f4499e1f2633a7b5936321eed1cdaeb6115181d29060200160405180910390a15b505050505050565b5f807f237e158222e3e6968b72b9db0d8043aacf074ad9f650f0d1606b4d82ee432c006107be565b604080518082019091525f80825260208201526001600160a01b0383165f908152602081905260409081902090516109bf908490611b63565b908152604051908190036020019020546001600160401b03165f036109f75760405163c5723b5160e01b815260040160405180910390fd5b6001600160a01b0383165f90815260208190526040908190209051610a1d908490611b63565b90815260408051918290036020908101832083830190925290546001600160401b0381168352600160401b900460170b90820152905092915050565b610a61610df2565b7f237e158222e3e6968b72b9db0d8043aacf074ad9f650f0d1606b4d82ee432c0080546001600160a01b0319166001600160a01b0383169081178255610aa561079a565b6001600160a01b03167f38d16b8cac22d99fc7c124b9cd0de2d3fa1faef420bfe791d8c362d765e2270060405160405180910390a35050565b6001600160a01b0382165f908152602081905260408082208382015191518392610b0791611b63565b908152604051908190036020019020548351516001600160401b03918216925016811115610b38575f9150506106d6565b82516001600160a01b0385165f90815260208190526040908190208186015191519091610b6491611b63565b908152604080519182900360209081018320845194909101516001600160c01b0316600160401b026001600160401b039094169390931790925590840151610bab91611b63565b60408051918290038220855180516020918201516001600160401b03909116855260170b90840152916001600160a01b038716917f0596010914c581c18e615a5b0d097d78728eb775f2412d8bedd4dbc808f4f85591015b60405180910390a35060019392505050565b6001600160a01b0382165f908152602081905260408082208382015191518392610c3e91611b63565b908152604051908190036020019020548351516001600160401b03918216925016811115610c6f575f9150506106d6565b6001600160a01b0384165f90815260016020526040908190208482015191519091610c9991611b63565b90815260408051918290036020908101832083830183528651516001600160401b039081168552875183015160170b85840190815282546001810184555f938452848420965191516001600160c01b0316600160401b0291909216179401939093556001600160a01b038716835260029052908190208482015191519091610d2091611b63565b9081526040519081900360200190208054905f610d3c83611b8d565b91905055508260400151604051610d539190611b63565b60408051918290038220855180516020918201516001600160a01b038a165f81815260029094529285902094890151939592947ffbb8f1bb7c4b5b8719a0357ba08c979650b113503c79ae1415088c0d6e429a8c94929391929091610db89190611b63565b90815260405190819003602001812054610c039392916001600160401b0393909316835260179190910b6020830152604082015260600190565b33610dfb61079a565b6001600160a01b031614610e245760405163118cdaa760e01b815233600482015260240161074c565b565b6001600160a01b0381165f8181526003602052604080822080546001600160a01b0319168155600101829055517fde37507a2967feaf95649773534bddc03d153af2b26b9ea17cdb9b62c5bbf18e9190a250565b306001600160a01b037f0000000000000000000000000000000000000000000000000000000000000000161480610f0057507f00000000000000000000000000000000000000000000000000000000000000006001600160a01b0316610ef45f516020611c075f395f51905f52546001600160a01b031690565b6001600160a01b031614155b15610e245760405163703e46dd60e11b815260040160405180910390fd5b610661610df2565b816001600160a01b03166352d1902d6040518163ffffffff1660e01b8152600401602060405180830381865afa925050508015610f80575060408051601f3d908101601f19168201909252610f7d91810190611ba5565b60015b610fa857604051634c9c8ce360e01b81526001600160a01b038316600482015260240161074c565b5f516020611c075f395f51905f528114610fd857604051632a87526960e21b81526004810182905260240161074c565b610fe283836111e2565b505050565b306001600160a01b037f00000000000000000000000000000000000000000000000000000000000000001614610e245760405163703e46dd60e11b815260040160405180910390fd5b6040805180820182526001600160a01b0384811680835260208084018681525f83815260038352869020945185546001600160a01b03191694169390931784559151600190930192909255915183815290917f99d8764b5ae5766702a4ec20b7a7c9afdb8827250795c8937679c91f91696ffd910160405180910390a25050565b7f237e158222e3e6968b72b9db0d8043aacf074ad9f650f0d1606b4d82ee432c0080546001600160a01b031916815561067f82611237565b5f848484846040516020016111019493929190611bbc565b604051602081830303815290604052805190602001209050949350505050565b7f19457468657265756d205369676e6564204d6573736167653a0a3332000000005f908152601c829052603c81206106d6565b604080516020810185905280820184905260f883901b6001600160f81b03191660608201528151604181830301815260619091019091525f9061119786826112a7565b9695505050505050565b5f807ff0c57e16840df040f15088dc2f81fe391c3923bec73e23a9662efc9c229c6a006106d6565b6111d16112cf565b610661816112f4565b610e246112cf565b6111eb82611325565b6040516001600160a01b038316907fbc7cd75a20ee27fd9adebab32041f755214dbc6bffa90cc0225b39da2e5c2d3b905f90a280511561122f57610fe28282611388565b61067f6113fa565b7f9016d09d72d40fdae2fd8ceac6b6234c7706214fd39c1cd1e609a0528c19930080546001600160a01b031981166001600160a01b03848116918217845560405192169182907f8be0079c531659141344cd1fd0a4f28419497f9722a3daafe3b4186f6b6457e0905f90a3505050565b5f5f5f5f6112b58686611419565b9250925092506112c58282611462565b5090949350505050565b6112d761151a565b610e2457604051631afcd79f60e31b815260040160405180910390fd5b6112fc6112cf565b6001600160a01b03811661079157604051631e4fbdf760e01b81525f600482015260240161074c565b806001600160a01b03163b5f0361135a57604051634c9c8ce360e01b81526001600160a01b038216600482015260240161074c565b5f516020611c075f395f51905f5280546001600160a01b0319166001600160a01b0392909216919091179055565b60605f5f846001600160a01b0316846040516113a49190611b63565b5f60405180830381855af49150503d805f81146113dc576040519150601f19603f3d011682016040523d82523d5f602084013e6113e1565b606091505b50915091506113f1858383611533565b95945050505050565b3415610e245760405163b398979f60e01b815260040160405180910390fd5b5f5f5f8351604103611450576020840151604085015160608601515f1a6114428882858561158f565b95509550955050505061145b565b505081515f91506002905b9250925092565b5f82600381111561147557611475611bf2565b0361147e575050565b600182600381111561149257611492611bf2565b036114b05760405163f645eedf60e01b815260040160405180910390fd5b60028260038111156114c4576114c4611bf2565b036114e55760405163fce698f760e01b81526004810182905260240161074c565b60038260038111156114f9576114f9611bf2565b0361067f576040516335e2f38360e21b81526004810182905260240161074c565b5f6115236111a1565b54600160401b900460ff16919050565b6060826115485761154382611657565b6105c3565b815115801561155f57506001600160a01b0384163b155b1561158857604051639996b31560e01b81526001600160a01b038516600482015260240161074c565b50806105c3565b5f80807f7fffffffffffffffffffffffffffffff5d576e7357a4501ddfe92f46681b20a08411156115c857505f9150600390508261164d565b604080515f808252602082018084528a905260ff891692820192909252606081018790526080810186905260019060a0016020604051602081039080840390855afa158015611619573d5f5f3e3d5ffd5b5050604051601f1901519150506001600160a01b03811661164457505f92506001915082905061164d565b92505f91508190505b9450945094915050565b80511561166657805160208201fd5b60405163d6bda27560e01b815260040160405180910390fd5b5f5f5f60408486031215611691575f5ffd5b83356001600160401b038111156116a6575f5ffd5b8401601f810186136116b6575f5ffd5b80356001600160401b038111156116cb575f5ffd5b8660208260051b84010111156116df575f5ffd5b60209182019450925084013580151581146116f8575f5ffd5b809150509250925092565b80356001600160a01b0381168114611719575f5ffd5b919050565b634e487b7160e01b5f52604160045260245ffd5b60405160c081016001600160401b03811182821017156117545761175461171e565b60405290565b604080519081016001600160401b03811182821017156117545761175461171e565b5f5f6001600160401b038411156117955761179561171e565b50604051601f19601f85018116603f011681018181106001600160401b03821117156117c3576117c361171e565b6040528381529050808284018510156117da575f5ffd5b838360208301375f60208583010152509392505050565b5f82601f830112611800575f5ffd5b6105c38383356020850161177c565b5f5f5f60608486031215611821575f5ffd5b61182a84611703565b925060208401356001600160401b03811115611844575f5ffd5b611850868287016117f1565b93969395505050506040919091013590565b5f60208284031215611872575f5ffd5b6105c382611703565b5f5f6040838503121561188c575f5ffd5b61189583611703565b915060208301356001600160401b038111156118af575f5ffd5b8301601f810185136118bf575f5ffd5b6118ce8582356020840161177c565b9150509250929050565b5f5f604083850312156118e9575f5ffd5b6118f283611703565b915060208301356001600160401b0381111561190c575f5ffd5b6118ce858286016117f1565b5f5f60408385031215611929575f5ffd5b61193283611703565b946020939093013593505050565b803560ff81168114611719575f5ffd5b5f5f5f5f5f5f5f60e0888a031215611966575f5ffd5b61196f88611703565b965060208801356001600160401b03811115611989575f5ffd5b6119958a828b016117f1565b96505060408801359450606088013593506080880135925060a088013591506119c060c08901611940565b905092959891949750929550565b602081525f82518060208401528060208501604085015e5f604082850101526040601f19601f83011684010191505092915050565b634e487b7160e01b5f52603260045260245ffd5b5f823560de19833603018112611a2b575f5ffd5b9190910192915050565b5f81360360e0811215611a46575f5ffd5b611a4e611732565b6040821215611a5b575f5ffd5b611a6361175a565b915083356001600160401b0381168114611a7b575f5ffd5b82526020840135601781900b8114611a91575f5ffd5b6020830152818152611aa560408501611703565b6020820152606084013591506001600160401b03821115611ac4575f5ffd5b611ad0368386016117f1565b6040820152608084810135606083015260a08501359082018190529150611af960c08501611940565b60a08201529392505050565b634e487b7160e01b5f52601160045260245ffd5b5f61ffff821661ffff8103611b3057611b30611b05565b60010192915050565b808201808211156106d6576106d6611b05565b5f81518060208401855e5f93019283525090919050565b5f6105c38284611b4c565b5f82611b8857634e487b7160e01b5f52601260045260245ffd5b500490565b5f60018201611b9e57611b9e611b05565b5060010190565b5f60208284031215611bb5575f5ffd5b5051919050565b6bffffffffffffffffffffffff198560601b1681525f611bdf6014830186611b4c565b9384525050602082015260400192915050565b634e487b7160e01b5f52602160045260245ffdfe360894a13ba1a3210667c828492db98dca3e2076cc3735a920a3ca505d382bbca2646970667358221220299ee569eca3e1f9508a74cdc015527bc88b588c84d81fa9d326c857ed406f3b64736f6c634300081c0033",
  "linkReferences": {},
  "deployedLinkReferences": {},
  "immutableReferences": {
    "619": [
      {
        "length": 32,
        "start": 3717
      },
      {
        "length": 32,
        "start": 3758
      },
      {
        "length": 32,
        "start": 4082
      }
    ]
  },
  "inputSourceName": "project/contracts/UpgradeableFirstPartyStork.sol",
  "buildInfoId": "solc-0_8_28-d33b8b46ec7a730825019bd614e3092288bb4275"
}