{
  "_format": "hh3-artifact-1",
  "contractName": "UpgradeableFirstPartyStork",
  "sourceName": "contracts/UpgradeableFirstPartyStork.sol",
  "abi": [
    {
      "inputs": [],
      "stateMutability": "nonpayable",
      "type": "constructor"
    },
    {
      "inputs": [
        {
          "internalType": "address",
          "name": "target",
          "type": "address"
        }
      ],
      "name": "AddressEmptyCode",
      "type": "error"
    },
    {
      "inputs": [],
      "name": "ECDSAInvalidSignature",
      "type": "error"
    },
    {
      "inputs": [
        {
          "internalType": "uint256",
          "name": "length",
          "type": "uint256"
        }
      ],
      "name": "ECDSAInvalidSignatureLength",
      "type": "error"
    },
    {
      "inputs": [
        {
          "internalType": "bytes32",
          "name": "s",
          "type": "bytes32"
        }
      ],
      "name": "ECDSAInvalidSignatureS",
      "type": "error"
    },
    {
      "inputs": [
        {
          "internalType": "address",
          "name": "implementation",
          "type": "address"
        }
      ],
      "name": "ERC1967InvalidImplementation",
      "type": "error"
    },
    {
      "inputs": [],
      "name": "ERC1967NonPayable",
      "type": "error"
    },
    {
      "inputs": [],
      "name": "FailedCall",
      "type": "error"
    },
    {
      "inputs": [],
      "name": "InsufficientFee",
      "type": "error"
    },
    {
      "inputs": [],
      "name": "InvalidInitialization",
      "type": "error"
    },
    {
      "inputs": [],
      "name": "InvalidSignature",
      "type": "error"
    },
    {
      "inputs": [],
      "name": "NoFreshUpdate",
      "type": "error"
    },
    {
      "inputs": [],
      "name": "NotFound",
      "type": "error"
    },
    {
      "inputs": [],
      "name": "NotInitializing",
      "type": "error"
    },
    {
      "inputs": [
        {
          "internalType": "address",
          "name": "owner",
          "type": "address"
        }
      ],
      "name": "OwnableInvalidOwner",
      "type": "error"
    },
    {
      "inputs": [
        {
          "internalType": "address",
          "name": "account",
          "type": "address"
        }
      ],
      "name": "OwnableUnauthorizedAccount",
      "type": "error"
    },
    {
      "inputs": [],
      "name": "UUPSUnauthorizedCallContext",
      "type": "error"
    },
    {
      "inputs": [
        {
          "internalType": "bytes32",
          "name": "slot",
          "type": "bytes32"
        }
      ],
      "name": "UUPSUnsupportedProxiableUUID",
      "type": "error"
    },
    {
      "anonymous": false,
      "inputs": [
        {
          "indexed": true,
          "internalType": "address",
          "name": "pubKey",
          "type": "address"
        },
        {
          "indexed": true,
          "internalType": "string",
          "name": "assetId",
          "type": "string"
        },
        {
          "indexed": false,
          "internalType": "uint64",
          "name": "timestampNs",
          "type": "uint64"
        },
        {
          "indexed": false,
          "internalType": "int192",
          "name": "quantizedValue",
          "type": "int192"
        },
        {
          "indexed": false,
          "internalType": "uint256",
          "name": "roundId",
          "type": "uint256"
        }
      ],
      "name": "HistoricalValueStored",
      "type": "event"
    },
    {
      "anonymous": false,
      "inputs": [
        {
          "indexed": false,
          "internalType": "uint64",
          "name": "version",
          "type": "uint64"
        }
      ],
      "name": "Initialized",
      "type": "event"
    },
    {
      "anonymous": false,
      "inputs": [
        {
          "indexed": true,
          "internalType": "address",
          "name": "previousOwner",
          "type": "address"
        },
        {
          "indexed": true,
          "internalType": "address",
          "name": "newOwner",
          "type": "address"
        }
      ],
      "name": "OwnershipTransferStarted",
      "type": "event"
    },
    {
      "anonymous": false,
      "inputs": [
        {
          "indexed": true,
          "internalType": "address",
          "name": "previousOwner",
          "type": "address"
        },
        {
          "indexed": true,
          "internalType": "address",
          "name": "newOwner",
          "type": "address"
        }
      ],
      "name": "OwnershipTransferred",
      "type": "event"
    },
    {
      "anonymous": false,
      "inputs": [
        {
          "indexed": true,
          "internalType": "address",
          "name": "pubKey",
          "type": "address"
        },
        {
          "indexed": false,
          "internalType": "uint256",
          "name": "singleUpdateFee",
          "type": "uint256"
        }
      ],
      "name": "PublisherUserAdded",
      "type": "event"
    },
    {
      "anonymous": false,
      "inputs": [
        {
          "indexed": true,
          "internalType": "address",
          "name": "pubKey",
          "type": "address"
        }
      ],
      "name": "PublisherUserRemoved",
      "type": "event"
    },
    {
      "anonymous": false,
      "inputs": [
        {
          "indexed": true,
          "internalType": "address",
          "name": "implementation",
          "type": "address"
        }
      ],
      "name": "Upgraded",
      "type": "event"
    },
    {
      "anonymous": false,
      "inputs": [
        {
          "indexed": true,
          "internalType": "address",
          "name": "pubKey",
          "type": "address"
        },
        {
          "indexed": true,
          "internalType": "string",
          "name": "assetId",
          "type": "string"
        },
        {
          "indexed": false,
          "internalType": "uint64",
          "name": "timestampNs",
          "type": "uint64"
        },
        {
          "indexed": false,
          "internalType": "int192",
          "name": "quantizedValue",
          "type": "int192"
        }
      ],
      "name": "ValueUpdate",
      "type": "event"
    },
    {
      "inputs": [],
      "name": "UPGRADE_INTERFACE_VERSION",
      "outputs": [
        {
          "internalType": "string",
          "name": "",
          "type": "string"
        }
      ],
      "stateMutability": "view",
      "type": "function"
    },
    {
      "inputs": [],
      "name": "acceptOwnership",
      "outputs": [],
      "stateMutability": "nonpayable",
      "type": "function"
    },
    {
      "inputs": [
        {
          "internalType": "address",
          "name": "pubKey",
          "type": "address"
        },
        {
          "internalType": "uint256",
          "name": "singleUpdateFee",
          "type": "uint256"
        }
      ],
      "name": "createPublisherUser",
      "outputs": [],
      "stateMutability": "nonpayable",
      "type": "function"
    },
    {
      "inputs": [
        {
          "internalType": "address",
          "name": "pubKey",
          "type": "address"
        }
      ],
      "name": "deletePublisherUser",
      "outputs": [],
      "stateMutability": "nonpayable",
      "type": "function"
    },
    {
      "inputs": [
        {
          "internalType": "address",
          "name": "pubKey",
          "type": "address"
        },
        {
          "internalType": "string",
          "name": "assetPairId",
          "type": "string"
        }
      ],
      "name": "getCurrentRoundId",
      "outputs": [
        {
          "internalType": "uint256",
          "name": "",
          "type": "uint256"
        }
      ],
      "stateMutability": "view",
      "type": "function"
    },
    {
      "inputs": [
        {
          "internalType": "address",
          "name": "pubKey",
          "type": "address"
        },
        {
          "internalType": "string",
          "name": "assetPairId",
          "type": "string"
        }
      ],
      "name": "getHistoricalRecordsCount",
      "outputs": [
        {
          "internalType": "uint256",
          "name": "",
          "type": "uint256"
        }
      ],
      "stateMutability": "view",
      "type": "function"
    },
    {
      "inputs": [
        {
          "internalType": "address",
          "name": "pubKey",
          "type": "address"
        },
        {
          "internalType": "string",
          "name": "assetPairId",
          "type": "string"
        },
        {
          "internalType": "uint256",
          "name": "roundId",
          "type": "uint256"
        }
      ],
      "name": "getHistoricalTemporalNumericValue",
      "outputs": [
        {
          "components": [
            {
              "internalType": "uint64",
              "name": "timestampNs",
              "type": "uint64"
            },
            {
              "internalType": "int192",
              "name": "quantizedValue",
              "type": "int192"
            }
          ],
          "internalType": "struct FirstPartyStorkStructs.TemporalNumericValue",
          "name": "",
          "type": "tuple"
        }
      ],
      "stateMutability": "view",
      "type": "function"
    },
    {
      "inputs": [
        {
          "internalType": "address",
          "name": "pubKey",
          "type": "address"
        },
        {
          "internalType": "string",
          "name": "assetPairId",
          "type": "string"
        }
      ],
      "name": "getLatestTemporalNumericValue",
      "outputs": [
        {
          "components": [
            {
              "internalType": "uint64",
              "name": "timestampNs",
              "type": "uint64"
            },
            {
              "internalType": "int192",
              "name": "quantizedValue",
              "type": "int192"
            }
          ],
          "internalType": "struct FirstPartyStorkStructs.TemporalNumericValue",
          "name": "value",
          "type": "tuple"
        }
      ],
      "stateMutability": "view",
      "type": "function"
    },
    {
      "inputs": [
        {
          "internalType": "address",
          "name": "pubKey",
          "type": "address"
        }
      ],
      "name": "getPublisherUser",
      "outputs": [
        {
          "components": [
            {
              "internalType": "address",
              "name": "pubKey",
              "type": "address"
            },
            {
              "internalType": "uint256",
              "name": "singleUpdateFee",
              "type": "uint256"
            }
          ],
          "internalType": "struct FirstPartyStorkStructs.PublisherUser",
          "name": "",
          "type": "tuple"
        }
      ],
      "stateMutability": "view",
      "type": "function"
    },
    {
      "inputs": [
        {
          "internalType": "address",
          "name": "initialOwner",
          "type": "address"
        }
      ],
      "name": "initialize",
      "outputs": [],
      "stateMutability": "nonpayable",
      "type": "function"
    },
    {
      "inputs": [],
      "name": "owner",
      "outputs": [
        {
          "internalType": "address",
          "name": "",
          "type": "address"
        }
      ],
      "stateMutability": "view",
      "type": "function"
    },
    {
      "inputs": [],
      "name": "pendingOwner",
      "outputs": [
        {
          "internalType": "address",
          "name": "",
          "type": "address"
        }
      ],
      "stateMutability": "view",
      "type": "function"
    },
    {
      "inputs": [],
      "name": "proxiableUUID",
      "outputs": [
        {
          "internalType": "bytes32",
          "name": "",
          "type": "bytes32"
        }
      ],
      "stateMutability": "view",
      "type": "function"
    },
    {
      "inputs": [],
      "name": "renounceOwnership",
      "outputs": [],
      "stateMutability": "nonpayable",
      "type": "function"
    },
    {
      "inputs": [
        {
          "internalType": "address",
          "name": "newOwner",
          "type": "address"
        }
      ],
      "name": "transferOwnership",
      "outputs": [],
      "stateMutability": "nonpayable",
      "type": "function"
    },
    {
      "inputs": [
        {
          "components": [
            {
              "components": [
                {
                  "internalType": "uint64",
                  "name": "timestampNs",
                  "type": "uint64"
                },
                {
                  "internalType": "int192",
                  "name": "quantizedValue",
                  "type": "int192"
                }
              ],
              "internalType": "struct FirstPartyStorkStructs.TemporalNumericValue",
              "name": "temporalNumericValue",
              "type": "tuple"
            },
            {
              "internalType": "address",
              "name": "pubKey",
              "type": "address"
            },
            {
              "internalType": "string",
              "name": "assetPairId",
              "type": "string"
            },
            {
              "internalType": "bytes32",
              "name": "r",
              "type": "bytes32"
            },
            {
              "internalType": "bytes32",
              "name": "s",
              "type": "bytes32"
            },
            {
              "internalType": "uint8",
              "name": "v",
              "type": "uint8"
            }
          ],
          "internalType": "struct FirstPartyStorkStructs.PublisherTemporalNumericValueInput[]",
          "name": "updateData",
          "type": "tuple[]"
        },
        {
          "internalType": "bool[]",
          "name": "storeHistoric",
          "type": "bool[]"
        }
      ],
      "name": "updateTemporalNumericValues",
      "outputs": [],
      "stateMutability": "payable",
      "type": "function"
    },
    {
      "inputs": [
        {
          "internalType": "address",
          "name": "newImplementation",
          "type": "address"
        },
        {
          "internalType": "bytes",
          "name": "data",
          "type": "bytes"
        }
      ],
      "name": "upgradeToAndCall",
      "outputs": [],
      "stateMutability": "payable",
      "type": "function"
    },
    {
      "inputs": [
        {
          "internalType": "address",
          "name": "oraclePubKey",
          "type": "address"
        },
        {
          "internalType": "string",
          "name": "assetPairId",
          "type": "string"
        },
        {
          "internalType": "uint256",
          "name": "timestamp",
          "type": "uint256"
        },
        {
          "internalType": "int256",
          "name": "value",
          "type": "int256"
        },
        {
          "internalType": "bytes32",
          "name": "r",
          "type": "bytes32"
        },
        {
          "internalType": "bytes32",
          "name": "s",
          "type": "bytes32"
        },
        {
          "internalType": "uint8",
          "name": "v",
          "type": "uint8"
        }
      ],
      "name": "verifyPublisherSignatureV1",
      "outputs": [
        {
          "internalType": "bool",
          "name": "",
          "type": "bool"
        }
      ],
      "stateMutability": "pure",
      "type": "function"
    }
  ],
  "bytecode": "0x60a060405230608052348015610013575f5ffd5b5061001c610021565b6100d3565b7ff0c57e16840df040f15088dc2f81fe391c3923bec73e23a9662efc9c229c6a00805468010000000000000000900460ff16156100715760405163f92ee8a960e01b815260040160405180910390fd5b80546001600160401b03908116146100d05780546001600160401b0319166001600160401b0390811782556040519081527fc7f505b2f371ae2175ee4913f4499e1f2633a7b5936321eed1cdaeb6115181d29060200160405180910390a15b50565b608051611cc76100f95f395f8181610b9001528181610bb90152610cfd0152611cc75ff3fe608060405260043610610105575f3560e01c80638da5cb5b11610092578063c4d66de811610062578063c4d66de81461030a578063e30c397814610329578063e7e9f9a91461033d578063ea41988714610350578063f2fde38b1461036f575f5ffd5b80638da5cb5b146102535780639bccd2d51461027f578063ad3cb1cc146102ae578063b7f16567146102eb575f5ffd5b806352d1902d116100d857806352d1902d146101cb578063543b2fc1146101ed578063714fbcad1461020c578063715018a61461022b57806379ba50971461023f575f5ffd5b80632651ad06146101095780633d57a29414610154578063488487a9146101975780634f1ef286146101b8575b5f5ffd5b348015610114575f5ffd5b506101286101233660046117aa565b61038e565b6040805182516001600160401b0316815260209283015160170b92810192909252015b60405180910390f35b34801561015f575f5ffd5b5061017361016e3660046117fd565b610479565b6040805182516001600160a01b03168152602092830151928101929092520161014b565b3480156101a2575f5ffd5b506101b66101b13660046117fd565b6104ff565b005b6101b66101c6366004611816565b610513565b3480156101d6575f5ffd5b506101df610532565b60405190815260200161014b565b3480156101f8575f5ffd5b506101df610207366004611873565b61054d565b348015610217575f5ffd5b506101b66102263660046118b3565b61058b565b348015610236575f5ffd5b506101b661059d565b34801561024a575f5ffd5b506101b6610604565b34801561025e575f5ffd5b50610267610649565b6040516001600160a01b03909116815260200161014b565b34801561028a575f5ffd5b5061029e6102993660046118eb565b61067d565b604051901515815260200161014b565b3480156102b9575f5ffd5b506102de604051806040016040528060058152602001640352e302e360dc1b81525081565b60405161014b9190611969565b3480156102f6575f5ffd5b506101df610305366004611873565b6106d2565b348015610315575f5ffd5b506101b66103243660046117fd565b61070e565b348015610334575f5ffd5b5061026761080d565b6101b661034b3660046119e5565b610835565b34801561035b575f5ffd5b5061012861036a366004611873565b6109a5565b34801561037a575f5ffd5b506101b66103893660046117fd565b610a78565b604080518082019091525f80825260208201526001600160a01b0384165f908152600160205260409081902090516103c7908590611a66565b9081526040519081900360200190205482106103f65760405163c5723b5160e01b815260040160405180910390fd5b6001600160a01b0384165f9081526001602052604090819020905161041c908590611a66565b9081526020016040518091039020828154811061043b5761043b611a71565b5f918252602091829020604080518082019091529101546001600160401b0381168252600160401b900460170b9181019190915290505b9392505050565b604080518082019091525f80825260208201526001600160a01b038281165f90815260036020526040902054166104c35760405163c5723b5160e01b815260040160405180910390fd5b506001600160a01b039081165f908152600360209081526040918290208251808401909352805490931682526001909201549181019190915290565b610507610afd565b61051081610b31565b50565b61051b610b85565b61052482610c29565b61052e8282610c31565b5050565b5f61053b610cf2565b505f516020611c725f395f51905f5290565b6001600160a01b0382165f908152600160205260408082209051610572908490611a66565b9081526040519081900360200190205490505b92915050565b610593610afd565b61052e8282610d3b565b6105a5610afd565b60405162461bcd60e51b815260206004820152602960248201527f4f776e61626c653a2072656e6f756e63696e67206f776e65727368697020697360448201526808191a5cd8589b195960ba1b60648201526084015b60405180910390fd5b338061060e61080d565b6001600160a01b0316146106405760405163118cdaa760e01b81526001600160a01b03821660048201526024016105fb565b61051081610dbc565b5f807f9016d09d72d40fdae2fd8ceac6b6234c7706214fd39c1cd1e609a0528c1993005b546001600160a01b031692915050565b5f806106988989610692633b9aca008b611a99565b89610df4565b90505f6106a482610e2c565b90505f6106b382888888610e5f565b6001600160a01b03908116908c16149350505050979650505050505050565b6001600160a01b0382165f9081526002602052604080822090516106f7908490611a66565b908152602001604051809103902054905092915050565b5f610717610eac565b805490915060ff600160401b82041615906001600160401b03165f8115801561073d5750825b90505f826001600160401b031660011480156107585750303b155b905081158015610766575080155b156107845760405163f92ee8a960e01b815260040160405180910390fd5b845467ffffffffffffffff1916600117855583156107ae57845460ff60401b1916600160401b1785555b6107b786610ed4565b6107bf610ee5565b831561080557845460ff60401b19168555604051600181527fc7f505b2f371ae2175ee4913f4499e1f2633a7b5936321eed1cdaeb6115181d29060200160405180910390a15b505050505050565b5f807f237e158222e3e6968b72b9db0d8043aacf074ad9f650f0d1606b4d82ee432c0061066d565b5f80805b85811015610960575f87878381811061085457610854611a71565b90506020028101906108669190611ab8565b61086f90611ad6565b90505f61087f8260200151610479565b90505f6108be83602001518460400151855f01515f01516001600160401b0316865f01516020015160170b876060015188608001518960a0015161067d565b9050806108de57604051638baa579f60e01b815260040160405180910390fd5b5f6108ed846020015185610eed565b9050801561090357866108ff81611ba6565b9750505b88888681811061091557610915611a71565b905060200201602081019061092a9190611bc6565b1561093f5761093d846020015185611024565b505b602083015161094e9087611be5565b95505060019093019250610839915050565b508161ffff165f0361098557604051636f162bfd60e11b815260040160405180910390fd5b803410156108055760405162976f7560e21b815260040160405180910390fd5b604080518082019091525f80825260208201526001600160a01b0383165f908152602081905260409081902090516109de908490611a66565b908152604051908190036020019020546001600160401b03165f03610a165760405163c5723b5160e01b815260040160405180910390fd5b6001600160a01b0383165f90815260208190526040908190209051610a3c908490611a66565b90815260408051918290036020908101832083830190925290546001600160401b0381168352600160401b900460170b90820152905092915050565b610a80610afd565b7f237e158222e3e6968b72b9db0d8043aacf074ad9f650f0d1606b4d82ee432c0080546001600160a01b0319166001600160a01b0383169081178255610ac4610649565b6001600160a01b03167f38d16b8cac22d99fc7c124b9cd0de2d3fa1faef420bfe791d8c362d765e2270060405160405180910390a35050565b33610b06610649565b6001600160a01b031614610b2f5760405163118cdaa760e01b81523360048201526024016105fb565b565b6001600160a01b0381165f8181526003602052604080822080546001600160a01b0319168155600101829055517fde37507a2967feaf95649773534bddc03d153af2b26b9ea17cdb9b62c5bbf18e9190a250565b306001600160a01b037f0000000000000000000000000000000000000000000000000000000000000000161480610c0b57507f00000000000000000000000000000000000000000000000000000000000000006001600160a01b0316610bff5f516020611c725f395f51905f52546001600160a01b031690565b6001600160a01b031614155b15610b2f5760405163703e46dd60e11b815260040160405180910390fd5b610510610afd565b816001600160a01b03166352d1902d6040518163ffffffff1660e01b8152600401602060405180830381865afa925050508015610c8b575060408051601f3d908101601f19168201909252610c8891810190611bf8565b60015b610cb357604051634c9c8ce360e01b81526001600160a01b03831660048201526024016105fb565b5f516020611c725f395f51905f528114610ce357604051632a87526960e21b8152600481018290526024016105fb565b610ced8383611201565b505050565b306001600160a01b037f00000000000000000000000000000000000000000000000000000000000000001614610b2f5760405163703e46dd60e11b815260040160405180910390fd5b6040805180820182526001600160a01b0384811680835260208084018681525f83815260038352869020945185546001600160a01b03191694169390931784559151600190930192909255915183815290917f99d8764b5ae5766702a4ec20b7a7c9afdb8827250795c8937679c91f91696ffd910160405180910390a25050565b7f237e158222e3e6968b72b9db0d8043aacf074ad9f650f0d1606b4d82ee432c0080546001600160a01b031916815561052e82611256565b5f84848484604051602001610e0c9493929190611c0f565b604051602081830303815290604052805190602001209050949350505050565b7f19457468657265756d205369676e6564204d6573736167653a0a3332000000005f908152601c829052603c8120610585565b604080516020810185905280820184905260f883901b6001600160f81b03191660608201528151604181830301815260619091019091525f90610ea286826112c6565b9695505050505050565b5f807ff0c57e16840df040f15088dc2f81fe391c3923bec73e23a9662efc9c229c6a00610585565b610edc6112ee565b61051081611313565b610b2f6112ee565b6001600160a01b0382165f908152602081905260408082208382015191518392610f1691611a66565b908152604051908190036020019020548351516001600160401b03918216925016811115610f47575f915050610585565b82516001600160a01b0385165f90815260208190526040908190208186015191519091610f7391611a66565b908152604080519182900360209081018320845194909101516001600160c01b0316600160401b026001600160401b039094169390931790925590840151610fba91611a66565b60408051918290038220855180516020918201516001600160401b03909116855260170b90840152916001600160a01b038716917f0596010914c581c18e615a5b0d097d78728eb775f2412d8bedd4dbc808f4f85591015b60405180910390a35060019392505050565b6001600160a01b0382165f90815260208190526040808220838201519151839261104d91611a66565b908152604051908190036020019020548351516001600160401b0391821692501681111561107e575f915050610585565b6001600160a01b0384165f908152600160205260409081902084820151915190916110a891611a66565b90815260408051918290036020908101832083830183528651516001600160401b039081168552875183015160170b85840190815282546001810184555f938452848420965191516001600160c01b0316600160401b0291909216179401939093556001600160a01b03871683526002905290819020848201519151909161112f91611a66565b9081526040519081900360200190208054905f61114b83611c45565b919050555082604001516040516111629190611a66565b60408051918290038220855180516020918201516001600160a01b038a165f81815260029094529285902094890151939592947ffbb8f1bb7c4b5b8719a0357ba08c979650b113503c79ae1415088c0d6e429a8c949293919290916111c79190611a66565b908152604051908190036020018120546110129392916001600160401b0393909316835260179190910b6020830152604082015260600190565b61120a82611344565b6040516001600160a01b038316907fbc7cd75a20ee27fd9adebab32041f755214dbc6bffa90cc0225b39da2e5c2d3b905f90a280511561124e57610ced82826113a7565b61052e611419565b7f9016d09d72d40fdae2fd8ceac6b6234c7706214fd39c1cd1e609a0528c19930080546001600160a01b031981166001600160a01b03848116918217845560405192169182907f8be0079c531659141344cd1fd0a4f28419497f9722a3daafe3b4186f6b6457e0905f90a3505050565b5f5f5f5f6112d48686611438565b9250925092506112e48282611481565b5090949350505050565b6112f6611539565b610b2f57604051631afcd79f60e31b815260040160405180910390fd5b61131b6112ee565b6001600160a01b03811661064057604051631e4fbdf760e01b81525f60048201526024016105fb565b806001600160a01b03163b5f0361137957604051634c9c8ce360e01b81526001600160a01b03821660048201526024016105fb565b5f516020611c725f395f51905f5280546001600160a01b0319166001600160a01b0392909216919091179055565b60605f5f846001600160a01b0316846040516113c39190611a66565b5f60405180830381855af49150503d805f81146113fb576040519150601f19603f3d011682016040523d82523d5f602084013e611400565b606091505b5091509150611410858383611552565b95945050505050565b3415610b2f5760405163b398979f60e01b815260040160405180910390fd5b5f5f5f835160410361146f576020840151604085015160608601515f1a611461888285856115ae565b95509550955050505061147a565b505081515f91506002905b9250925092565b5f82600381111561149457611494611c5d565b0361149d575050565b60018260038111156114b1576114b1611c5d565b036114cf5760405163f645eedf60e01b815260040160405180910390fd5b60028260038111156114e3576114e3611c5d565b036115045760405163fce698f760e01b8152600481018290526024016105fb565b600382600381111561151857611518611c5d565b0361052e576040516335e2f38360e21b8152600481018290526024016105fb565b5f611542610eac565b54600160401b900460ff16919050565b6060826115675761156282611676565b610472565b815115801561157e57506001600160a01b0384163b155b156115a757604051639996b31560e01b81526001600160a01b03851660048201526024016105fb565b5080610472565b5f80807f7fffffffffffffffffffffffffffffff5d576e7357a4501ddfe92f46681b20a08411156115e757505f9150600390508261166c565b604080515f808252602082018084528a905260ff891692820192909252606081018790526080810186905260019060a0016020604051602081039080840390855afa158015611638573d5f5f3e3d5ffd5b5050604051601f1901519150506001600160a01b03811661166357505f92506001915082905061166c565b92505f91508190505b9450945094915050565b80511561168557805160208201fd5b60405163d6bda27560e01b815260040160405180910390fd5b80356001600160a01b03811681146116b4575f5ffd5b919050565b634e487b7160e01b5f52604160045260245ffd5b60405160c081016001600160401b03811182821017156116ef576116ef6116b9565b60405290565b604080519081016001600160401b03811182821017156116ef576116ef6116b9565b5f5f6001600160401b03841115611730576117306116b9565b50604051601f19601f85018116603f011681018181106001600160401b038211171561175e5761175e6116b9565b604052838152905080828401851015611775575f5ffd5b838360208301375f60208583010152509392505050565b5f82601f83011261179b575f5ffd5b61047283833560208501611717565b5f5f5f606084860312156117bc575f5ffd5b6117c58461169e565b925060208401356001600160401b038111156117df575f5ffd5b6117eb8682870161178c565b93969395505050506040919091013590565b5f6020828403121561180d575f5ffd5b6104728261169e565b5f5f60408385031215611827575f5ffd5b6118308361169e565b915060208301356001600160401b0381111561184a575f5ffd5b8301601f8101851361185a575f5ffd5b61186985823560208401611717565b9150509250929050565b5f5f60408385031215611884575f5ffd5b61188d8361169e565b915060208301356001600160401b038111156118a7575f5ffd5b6118698582860161178c565b5f5f604083850312156118c4575f5ffd5b6118cd8361169e565b946020939093013593505050565b803560ff811681146116b4575f5ffd5b5f5f5f5f5f5f5f60e0888a031215611901575f5ffd5b61190a8861169e565b965060208801356001600160401b03811115611924575f5ffd5b6119308a828b0161178c565b96505060408801359450606088013593506080880135925060a0880135915061195b60c089016118db565b905092959891949750929550565b602081525f82518060208401528060208501604085015e5f604082850101526040601f19601f83011684010191505092915050565b5f5f83601f8401126119ae575f5ffd5b5081356001600160401b038111156119c4575f5ffd5b6020830191508360208260051b85010111156119de575f5ffd5b9250929050565b5f5f5f5f604085870312156119f8575f5ffd5b84356001600160401b03811115611a0d575f5ffd5b611a198782880161199e565b90955093505060208501356001600160401b03811115611a37575f5ffd5b611a438782880161199e565b95989497509550505050565b5f81518060208401855e5f93019283525090919050565b5f6104728284611a4f565b634e487b7160e01b5f52603260045260245ffd5b634e487b7160e01b5f52601160045260245ffd5b5f82611ab357634e487b7160e01b5f52601260045260245ffd5b500490565b5f823560de19833603018112611acc575f5ffd5b9190910192915050565b5f81360360e0811215611ae7575f5ffd5b611aef6116cd565b6040821215611afc575f5ffd5b611b046116f5565b915083356001600160401b0381168114611b1c575f5ffd5b82526020840135601781900b8114611b32575f5ffd5b6020830152818152611b466040850161169e565b6020820152606084013591506001600160401b03821115611b65575f5ffd5b611b713683860161178c565b6040820152608084810135606083015260a08501359082018190529150611b9a60c085016118db565b60a08201529392505050565b5f61ffff821661ffff8103611bbd57611bbd611a85565b60010192915050565b5f60208284031215611bd6575f5ffd5b81358015158114610472575f5ffd5b8082018082111561058557610585611a85565b5f60208284031215611c08575f5ffd5b5051919050565b6bffffffffffffffffffffffff198560601b1681525f611c326014830186611a4f565b9384525050602082015260400192915050565b5f60018201611c5657611c56611a85565b5060010190565b634e487b7160e01b5f52602160045260245ffdfe360894a13ba1a3210667c828492db98dca3e2076cc3735a920a3ca505d382bbca2646970667358221220b8fb439095be7c27a8a6a80296711b5702c01962e43136a6334b0b606f8a689d64736f6c634300081c0033",
  "linkReferences": {},
  "deployedLinkReferences": {},
  "immutableReferences": {
    "619": [
      {
        "length": 32,
        "start": 2960
      },
      {
        "length": 32,
        "start": 3001
      },
      {
        "length": 32,
        "start": 3325
      }
    ]
  },
  "inputSourceName": "project/contracts/UpgradeableFirstPartyStork.sol",
  "buildInfoId": "solc-0_8_28-595914f08c7f452c0832b79fe875111e0baa24a5"
}