{
  "_format": "hh3-artifact-1",
  "contractName": "Counter",
  "sourceName": "contracts/Counter.sol",
  "abi": [
    {
      "anonymous": false,
      "inputs": [
        {
          "indexed": false,
          "internalType": "uint256",
          "name": "by",
          "type": "uint256"
        }
      ],
      "name": "Increment",
      "type": "event"
    },
    {
      "inputs": [],
      "name": "inc",
      "outputs": [],
      "stateMutability": "nonpayable",
      "type": "function"
    },
    {
      "inputs": [
        {
          "internalType": "uint256",
          "name": "by",
          "type": "uint256"
        }
      ],
      "name": "incBy",
      "outputs": [],
      "stateMutability": "nonpayable",
      "type": "function"
    },
    {
      "inputs": [],
      "name": "x",
      "outputs": [
        {
          "internalType": "uint256",
          "name": "",
          "type": "uint256"
        }
      ],
      "stateMutability": "view",
      "type": "function"
    }
  ],
  "bytecode": "0x6080604052348015600e575f5ffd5b506101ff8061001c5f395ff3fe608060405234801561000f575f5ffd5b506004361061003f575f3560e01c80630c55699c14610043578063371303c01461005d57806370119d0614610067575b5f5ffd5b61004b5f5481565b60405190815260200160405180910390f35b61006561007a565b005b61006561007536600461016d565b6100c3565b5f8054908061008883610198565b9091555050604051600181527f51af157c2eee40f68107a47a49c32fbbeb0a3c9e5cd37aa56e88e6be92368a819060200160405180910390a1565b5f81116101225760405162461bcd60e51b815260206004820152602360248201527f696e6342793a20696e6372656d656e742073686f756c6420626520706f73697460448201526269766560e81b606482015260840160405180910390fd5b805f5f82825461013291906101b0565b90915550506040518181527f51af157c2eee40f68107a47a49c32fbbeb0a3c9e5cd37aa56e88e6be92368a819060200160405180910390a150565b5f6020828403121561017d575f5ffd5b5035919050565b634e487b7160e01b5f52601160045260245ffd5b5f600182016101a9576101a9610184565b5060010190565b808201808211156101c3576101c3610184565b9291505056fea264697066735822122092c04af7cb39a2e3f4ade21a1b198faf89f565ac533adb1d8d7d00bda5ba04d764736f6c634300081c0033",
  "linkReferences": {},
  "deployedLinkReferences": {},
  "immutableReferences": {},
  "inputSourceName": "project/contracts/Counter.sol",
  "buildInfoId": "solc-0_8_28-9c5d508ca7a179a1e6e42fdda2639f7b929530b3"
}