{
  "_format": "hh3-artifact-1",
  "contractName": "UpgradeableFirstPartyStork",
  "sourceName": "contracts/UpgradeableFirstPartyStork.sol",
  "abi": [
    {
      "inputs": [],
      "stateMutability": "nonpayable",
      "type": "constructor"
    },
    {
      "inputs": [
        {
          "internalType": "address",
          "name": "target",
          "type": "address"
        }
      ],
      "name": "AddressEmptyCode",
      "type": "error"
    },
    {
      "inputs": [],
      "name": "ECDSAInvalidSignature",
      "type": "error"
    },
    {
      "inputs": [
        {
          "internalType": "uint256",
          "name": "length",
          "type": "uint256"
        }
      ],
      "name": "ECDSAInvalidSignatureLength",
      "type": "error"
    },
    {
      "inputs": [
        {
          "internalType": "bytes32",
          "name": "s",
          "type": "bytes32"
        }
      ],
      "name": "ECDSAInvalidSignatureS",
      "type": "error"
    },
    {
      "inputs": [
        {
          "internalType": "address",
          "name": "implementation",
          "type": "address"
        }
      ],
      "name": "ERC1967InvalidImplementation",
      "type": "error"
    },
    {
      "inputs": [],
      "name": "ERC1967NonPayable",
      "type": "error"
    },
    {
      "inputs": [],
      "name": "FailedCall",
      "type": "error"
    },
    {
      "inputs": [],
      "name": "InsufficientFee",
      "type": "error"
    },
    {
      "inputs": [],
      "name": "InvalidInitialization",
      "type": "error"
    },
    {
      "inputs": [],
      "name": "InvalidSignature",
      "type": "error"
    },
    {
      "inputs": [],
      "name": "NoFreshUpdate",
      "type": "error"
    },
    {
      "inputs": [],
      "name": "NotFound",
      "type": "error"
    },
    {
      "inputs": [],
      "name": "NotInitializing",
      "type": "error"
    },
    {
      "inputs": [
        {
          "internalType": "address",
          "name": "owner",
          "type": "address"
        }
      ],
      "name": "OwnableInvalidOwner",
      "type": "error"
    },
    {
      "inputs": [
        {
          "internalType": "address",
          "name": "account",
          "type": "address"
        }
      ],
      "name": "OwnableUnauthorizedAccount",
      "type": "error"
    },
    {
      "inputs": [],
      "name": "UUPSUnauthorizedCallContext",
      "type": "error"
    },
    {
      "inputs": [
        {
          "internalType": "bytes32",
          "name": "slot",
          "type": "bytes32"
        }
      ],
      "name": "UUPSUnsupportedProxiableUUID",
      "type": "error"
    },
    {
      "anonymous": false,
      "inputs": [
        {
          "indexed": true,
          "internalType": "address",
          "name": "pubKey",
          "type": "address"
        },
        {
          "indexed": true,
          "internalType": "string",
          "name": "encodedAssetId",
          "type": "string"
        },
        {
          "indexed": false,
          "internalType": "string",
          "name": "assetId",
          "type": "string"
        },
        {
          "indexed": false,
          "internalType": "uint64",
          "name": "timestampNs",
          "type": "uint64"
        },
        {
          "indexed": false,
          "internalType": "int192",
          "name": "quantizedValue",
          "type": "int192"
        },
        {
          "indexed": false,
          "internalType": "uint256",
          "name": "roundId",
          "type": "uint256"
        }
      ],
      "name": "HistoricalValueStored",
      "type": "event"
    },
    {
      "anonymous": false,
      "inputs": [
        {
          "indexed": false,
          "internalType": "uint64",
          "name": "version",
          "type": "uint64"
        }
      ],
      "name": "Initialized",
      "type": "event"
    },
    {
      "anonymous": false,
      "inputs": [
        {
          "indexed": true,
          "internalType": "address",
          "name": "previousOwner",
          "type": "address"
        },
        {
          "indexed": true,
          "internalType": "address",
          "name": "newOwner",
          "type": "address"
        }
      ],
      "name": "OwnershipTransferStarted",
      "type": "event"
    },
    {
      "anonymous": false,
      "inputs": [
        {
          "indexed": true,
          "internalType": "address",
          "name": "previousOwner",
          "type": "address"
        },
        {
          "indexed": true,
          "internalType": "address",
          "name": "newOwner",
          "type": "address"
        }
      ],
      "name": "OwnershipTransferred",
      "type": "event"
    },
    {
      "anonymous": false,
      "inputs": [
        {
          "indexed": true,
          "internalType": "address",
          "name": "pubKey",
          "type": "address"
        },
        {
          "indexed": false,
          "internalType": "uint256",
          "name": "singleUpdateFee",
          "type": "uint256"
        }
      ],
      "name": "PublisherUserAdded",
      "type": "event"
    },
    {
      "anonymous": false,
      "inputs": [
        {
          "indexed": true,
          "internalType": "address",
          "name": "pubKey",
          "type": "address"
        }
      ],
      "name": "PublisherUserRemoved",
      "type": "event"
    },
    {
      "anonymous": false,
      "inputs": [
        {
          "indexed": true,
          "internalType": "address",
          "name": "implementation",
          "type": "address"
        }
      ],
      "name": "Upgraded",
      "type": "event"
    },
    {
      "anonymous": false,
      "inputs": [
        {
          "indexed": true,
          "internalType": "address",
          "name": "pubKey",
          "type": "address"
        },
        {
          "indexed": true,
          "internalType": "string",
          "name": "encodedAssetId",
          "type": "string"
        },
        {
          "indexed": false,
          "internalType": "string",
          "name": "assetId",
          "type": "string"
        },
        {
          "indexed": false,
          "internalType": "uint64",
          "name": "timestampNs",
          "type": "uint64"
        },
        {
          "indexed": false,
          "internalType": "int192",
          "name": "quantizedValue",
          "type": "int192"
        }
      ],
      "name": "ValueUpdate",
      "type": "event"
    },
    {
      "inputs": [],
      "name": "UPGRADE_INTERFACE_VERSION",
      "outputs": [
        {
          "internalType": "string",
          "name": "",
          "type": "string"
        }
      ],
      "stateMutability": "view",
      "type": "function"
    },
    {
      "inputs": [],
      "name": "acceptOwnership",
      "outputs": [],
      "stateMutability": "nonpayable",
      "type": "function"
    },
    {
      "inputs": [
        {
          "internalType": "address",
          "name": "pubKey",
          "type": "address"
        },
        {
          "internalType": "uint256",
          "name": "singleUpdateFee",
          "type": "uint256"
        }
      ],
      "name": "createPublisherUser",
      "outputs": [],
      "stateMutability": "nonpayable",
      "type": "function"
    },
    {
      "inputs": [
        {
          "internalType": "address",
          "name": "pubKey",
          "type": "address"
        }
      ],
      "name": "deletePublisherUser",
      "outputs": [],
      "stateMutability": "nonpayable",
      "type": "function"
    },
    {
      "inputs": [
        {
          "internalType": "address",
          "name": "pubKey",
          "type": "address"
        },
        {
          "internalType": "string",
          "name": "assetPairId",
          "type": "string"
        }
      ],
      "name": "getCurrentRoundId",
      "outputs": [
        {
          "internalType": "uint256",
          "name": "",
          "type": "uint256"
        }
      ],
      "stateMutability": "view",
      "type": "function"
    },
    {
      "inputs": [
        {
          "internalType": "string",
          "name": "assetPairId",
          "type": "string"
        }
      ],
      "name": "getEncodedAssetId",
      "outputs": [
        {
          "internalType": "bytes32",
          "name": "",
          "type": "bytes32"
        }
      ],
      "stateMutability": "pure",
      "type": "function"
    },
    {
      "inputs": [
        {
          "internalType": "address",
          "name": "pubKey",
          "type": "address"
        },
        {
          "internalType": "string",
          "name": "assetPairId",
          "type": "string"
        }
      ],
      "name": "getHistoricalRecordsCount",
      "outputs": [
        {
          "internalType": "uint256",
          "name": "",
          "type": "uint256"
        }
      ],
      "stateMutability": "view",
      "type": "function"
    },
    {
      "inputs": [
        {
          "internalType": "address",
          "name": "pubKey",
          "type": "address"
        },
        {
          "internalType": "string",
          "name": "assetPairId",
          "type": "string"
        },
        {
          "internalType": "uint256",
          "name": "roundId",
          "type": "uint256"
        }
      ],
      "name": "getHistoricalTemporalNumericValue",
      "outputs": [
        {
          "components": [
            {
              "internalType": "uint64",
              "name": "timestampNs",
              "type": "uint64"
            },
            {
              "internalType": "int192",
              "name": "quantizedValue",
              "type": "int192"
            }
          ],
          "internalType": "struct StorkStructs.TemporalNumericValue",
          "name": "",
          "type": "tuple"
        }
      ],
      "stateMutability": "view",
      "type": "function"
    },
    {
      "inputs": [
        {
          "internalType": "address",
          "name": "pubKey",
          "type": "address"
        },
        {
          "internalType": "string",
          "name": "assetPairId",
          "type": "string"
        }
      ],
      "name": "getLatestTemporalNumericValue",
      "outputs": [
        {
          "components": [
            {
              "internalType": "uint64",
              "name": "timestampNs",
              "type": "uint64"
            },
            {
              "internalType": "int192",
              "name": "quantizedValue",
              "type": "int192"
            }
          ],
          "internalType": "struct StorkStructs.TemporalNumericValue",
          "name": "value",
          "type": "tuple"
        }
      ],
      "stateMutability": "view",
      "type": "function"
    },
    {
      "inputs": [
        {
          "internalType": "address",
          "name": "pubKey",
          "type": "address"
        }
      ],
      "name": "getPublisherUser",
      "outputs": [
        {
          "components": [
            {
              "internalType": "address",
              "name": "pubKey",
              "type": "address"
            },
            {
              "internalType": "uint256",
              "name": "singleUpdateFee",
              "type": "uint256"
            }
          ],
          "internalType": "struct FirstPartyStorkStructs.PublisherUser",
          "name": "",
          "type": "tuple"
        }
      ],
      "stateMutability": "view",
      "type": "function"
    },
    {
      "inputs": [
        {
          "internalType": "address",
          "name": "pubKey",
          "type": "address"
        }
      ],
      "name": "getSingleUpdateFee",
      "outputs": [
        {
          "internalType": "uint256",
          "name": "",
          "type": "uint256"
        }
      ],
      "stateMutability": "view",
      "type": "function"
    },
    {
      "inputs": [
        {
          "components": [
            {
              "components": [
                {
                  "internalType": "uint64",
                  "name": "timestampNs",
                  "type": "uint64"
                },
                {
                  "internalType": "int192",
                  "name": "quantizedValue",
                  "type": "int192"
                }
              ],
              "internalType": "struct StorkStructs.TemporalNumericValue",
              "name": "temporalNumericValue",
              "type": "tuple"
            },
            {
              "internalType": "address",
              "name": "pubKey",
              "type": "address"
            },
            {
              "internalType": "string",
              "name": "assetPairId",
              "type": "string"
            },
            {
              "internalType": "bool",
              "name": "storeHistorical",
              "type": "bool"
            },
            {
              "internalType": "bytes32",
              "name": "r",
              "type": "bytes32"
            },
            {
              "internalType": "bytes32",
              "name": "s",
              "type": "bytes32"
            },
            {
              "internalType": "uint8",
              "name": "v",
              "type": "uint8"
            }
          ],
          "internalType": "struct FirstPartyStorkStructs.PublisherTemporalNumericValueInput[]",
          "name": "updateData",
          "type": "tuple[]"
        }
      ],
      "name": "getUpdateFeeV1",
      "outputs": [
        {
          "internalType": "uint256",
          "name": "",
          "type": "uint256"
        }
      ],
      "stateMutability": "view",
      "type": "function"
    },
    {
      "inputs": [
        {
          "internalType": "address",
          "name": "initialOwner",
          "type": "address"
        }
      ],
      "name": "initialize",
      "outputs": [],
      "stateMutability": "nonpayable",
      "type": "function"
    },
    {
      "inputs": [],
      "name": "owner",
      "outputs": [
        {
          "internalType": "address",
          "name": "",
          "type": "address"
        }
      ],
      "stateMutability": "view",
      "type": "function"
    },
    {
      "inputs": [],
      "name": "pendingOwner",
      "outputs": [
        {
          "internalType": "address",
          "name": "",
          "type": "address"
        }
      ],
      "stateMutability": "view",
      "type": "function"
    },
    {
      "inputs": [],
      "name": "proxiableUUID",
      "outputs": [
        {
          "internalType": "bytes32",
          "name": "",
          "type": "bytes32"
        }
      ],
      "stateMutability": "view",
      "type": "function"
    },
    {
      "inputs": [],
      "name": "renounceOwnership",
      "outputs": [],
      "stateMutability": "nonpayable",
      "type": "function"
    },
    {
      "inputs": [
        {
          "internalType": "address",
          "name": "newOwner",
          "type": "address"
        }
      ],
      "name": "transferOwnership",
      "outputs": [],
      "stateMutability": "nonpayable",
      "type": "function"
    },
    {
      "inputs": [
        {
          "components": [
            {
              "components": [
                {
                  "internalType": "uint64",
                  "name": "timestampNs",
                  "type": "uint64"
                },
                {
                  "internalType": "int192",
                  "name": "quantizedValue",
                  "type": "int192"
                }
              ],
              "internalType": "struct StorkStructs.TemporalNumericValue",
              "name": "temporalNumericValue",
              "type": "tuple"
            },
            {
              "internalType": "address",
              "name": "pubKey",
              "type": "address"
            },
            {
              "internalType": "string",
              "name": "assetPairId",
              "type": "string"
            },
            {
              "internalType": "bool",
              "name": "storeHistorical",
              "type": "bool"
            },
            {
              "internalType": "bytes32",
              "name": "r",
              "type": "bytes32"
            },
            {
              "internalType": "bytes32",
              "name": "s",
              "type": "bytes32"
            },
            {
              "internalType": "uint8",
              "name": "v",
              "type": "uint8"
            }
          ],
          "internalType": "struct FirstPartyStorkStructs.PublisherTemporalNumericValueInput[]",
          "name": "updateData",
          "type": "tuple[]"
        }
      ],
      "name": "updateTemporalNumericValues",
      "outputs": [],
      "stateMutability": "payable",
      "type": "function"
    },
    {
      "inputs": [
        {
          "internalType": "address",
          "name": "newImplementation",
          "type": "address"
        },
        {
          "internalType": "bytes",
          "name": "data",
          "type": "bytes"
        }
      ],
      "name": "upgradeToAndCall",
      "outputs": [],
      "stateMutability": "payable",
      "type": "function"
    },
    {
      "inputs": [
        {
          "internalType": "address",
          "name": "publisherPubKey",
          "type": "address"
        },
        {
          "internalType": "string",
          "name": "assetPairId",
          "type": "string"
        },
        {
          "internalType": "uint256",
          "name": "timestamp",
          "type": "uint256"
        },
        {
          "internalType": "int256",
          "name": "value",
          "type": "int256"
        },
        {
          "internalType": "bytes32",
          "name": "r",
          "type": "bytes32"
        },
        {
          "internalType": "bytes32",
          "name": "s",
          "type": "bytes32"
        },
        {
          "internalType": "uint8",
          "name": "v",
          "type": "uint8"
        }
      ],
      "name": "verifyPublisherSignatureV1",
      "outputs": [
        {
          "internalType": "bool",
          "name": "",
          "type": "bool"
        }
      ],
      "stateMutability": "pure",
      "type": "function"
    },
    {
      "inputs": [],
      "name": "version",
      "outputs": [
        {
          "internalType": "string",
          "name": "",
          "type": "string"
        }
      ],
      "stateMutability": "pure",
      "type": "function"
    }
  ],
  "bytecode": "0x60a060405230608052348015610013575f5ffd5b5061001c610021565b6100d3565b7ff0c57e16840df040f15088dc2f81fe391c3923bec73e23a9662efc9c229c6a00805468010000000000000000900460ff16156100715760405163f92ee8a960e01b815260040160405180910390fd5b80546001600160401b03908116146100d05780546001600160401b0319166001600160401b0390811782556040519081527fc7f505b2f371ae2175ee4913f4499e1f2633a7b5936321eed1cdaeb6115181d29060200160405180910390a15b50565b608051611d4b6100f95f395f8181610d9001528181610db90152610efd0152611d4b5ff3fe608060405260043610610131575f3560e01c806379ba5097116100a8578063ad3cb1cc1161006d578063ad3cb1cc14610380578063b7f16567146103b0578063c4d66de8146103cf578063e30c3978146103ee578063ea41988714610402578063f2fde38b14610421575f5ffd5b806379ba5097146102d357806387159c97146102e75780638b55ecc0146103065780638da5cb5b146103255780639bccd2d514610351575f5ffd5b80634f1ef286116100f95780634f1ef2861461022457806352d1902d14610237578063543b2fc11461024b57806354fd4d501461026a578063714fbcad146102a0578063715018a6146102bf575f5ffd5b80632651ad061461013557806338a3f02f146101805780633d57a2941461019557806344bae290146101d8578063488487a914610205575b5f5ffd5b348015610140575f5ffd5b5061015461014f366004611791565b610440565b6040805182516001600160401b0316815260209283015160170b92810192909252015b60405180910390f35b61019361018e3660046117e4565b610515565b005b3480156101a0575f5ffd5b506101b46101af366004611853565b610642565b6040805182516001600160a01b031681526020928301519281019290925201610177565b3480156101e3575f5ffd5b506101f76101f2366004611853565b6106c8565b604051908152602001610177565b348015610210575f5ffd5b5061019361021f366004611853565b6106dc565b61019361023236600461186c565b6106f0565b348015610242575f5ffd5b506101f761070f565b348015610256575f5ffd5b506101f76102653660046118c9565b61072a565b348015610275575f5ffd5b506040805180820190915260058152640312e302e360dc1b60208201525b6040516101779190611937565b3480156102ab575f5ffd5b506101936102ba366004611949565b610761565b3480156102ca575f5ffd5b50610193610773565b3480156102de575f5ffd5b506101936107da565b3480156102f2575f5ffd5b506101f76103013660046117e4565b61081f565b348015610311575f5ffd5b506101f7610320366004611971565b610885565b348015610330575f5ffd5b506103396108b4565b6040516001600160a01b039091168152602001610177565b34801561035c575f5ffd5b5061037061036b3660046119ba565b6108e8565b6040519015158152602001610177565b34801561038b575f5ffd5b50610293604051806040016040528060058152602001640352e302e360dc1b81525081565b3480156103bb575f5ffd5b506101f76103ca3660046118c9565b61093d565b3480156103da575f5ffd5b506101936103e9366004611853565b610973565b3480156103f9575f5ffd5b50610339610a72565b34801561040d575f5ffd5b5061015461041c3660046118c9565b610a9a565b34801561042c575f5ffd5b5061019361043b366004611853565b610b52565b604080518082019091525f80825260208201525f61045d84610885565b6001600160a01b0386165f90815260016020908152604080832084845290915290205490915083106104a25760405163c5723b5160e01b815260040160405180910390fd5b6001600160a01b0385165f90815260016020908152604080832084845290915290208054849081106104d6576104d6611a38565b5f918252602091829020604080518082019091529101546001600160401b0381168252600160401b900460170b918101919091529150505b9392505050565b5f80805b838110156105f7575f85858381811061053457610534611a38565b90506020028101906105469190611a4c565b61054f90611aea565b90505f61058e82602001518360400151845f01515f01516001600160401b0316855f01516020015160170b86608001518760a001518860c001516108e8565b9050806105ae57604051638baa579f60e01b815260040160405180910390fd5b5f6105bd836020015184610bd7565b905080156105ec57856105cf81611b9a565b9650506105df83602001516106c8565b6105e99086611bba565b94505b505050600101610519565b508161ffff165f0361061c57604051636f162bfd60e11b815260040160405180910390fd5b8034101561063c5760405162976f7560e21b815260040160405180910390fd5b50505050565b604080518082019091525f80825260208201526001600160a01b038281165f908152600360205260409020541661068c5760405163c5723b5160e01b815260040160405180910390fd5b506001600160a01b039081165f908152600360209081526040918290208251808401909352805490931682526001909201549181019190915290565b5f6106d282610642565b6020015192915050565b6106e4610cfd565b6106ed81610d31565b50565b6106f8610d85565b61070182610e29565b61070b8282610e31565b5050565b5f610718610ef2565b505f516020611cf65f395f51905f5290565b5f5f61073583610885565b6001600160a01b0385165f90815260016020908152604080832093835292905220549150505b92915050565b610769610cfd565b61070b8282610f3b565b61077b610cfd565b60405162461bcd60e51b815260206004820152602960248201527f4f776e61626c653a2072656e6f756e63696e67206f776e65727368697020697360448201526808191a5cd8589b195960ba1b60648201526084015b60405180910390fd5b33806107e4610a72565b6001600160a01b0316146108165760405163118cdaa760e01b81526001600160a01b03821660048201526024016107d1565b6106ed81610fbc565b5f80805b8381101561087d575f85858381811061083e5761083e611a38565b90506020028101906108509190611a4c565b61085990611aea565b905061086881602001516106c8565b6108729084611bba565b925050600101610823565b509392505050565b5f816040516020016108979190611be4565b604051602081830303815290604052805190602001209050919050565b5f807f9016d09d72d40fdae2fd8ceac6b6234c7706214fd39c1cd1e609a0528c1993005b546001600160a01b031692915050565b5f8061090389896108fd633b9aca008b611bef565b89610ff4565b90505f61090f8261102c565b90505f61091e8288888861105f565b6001600160a01b03908116908c16149350505050979650505050505050565b5f5f61094883610885565b6001600160a01b0385165f908152600260209081526040808320938352929052205491505092915050565b5f61097c6110ac565b805490915060ff600160401b82041615906001600160401b03165f811580156109a25750825b90505f826001600160401b031660011480156109bd5750303b155b9050811580156109cb575080155b156109e95760405163f92ee8a960e01b815260040160405180910390fd5b845467ffffffffffffffff191660011785558315610a1357845460ff60401b1916600160401b1785555b610a1c866110d4565b610a246110e5565b8315610a6a57845460ff60401b19168555604051600181527fc7f505b2f371ae2175ee4913f4499e1f2633a7b5936321eed1cdaeb6115181d29060200160405180910390a15b505050505050565b5f807f237e158222e3e6968b72b9db0d8043aacf074ad9f650f0d1606b4d82ee432c006108d8565b604080518082019091525f80825260208201525f610ab783610885565b6001600160a01b0385165f908152602081815260408083208484529091528120549192506001600160401b039091169003610b055760405163c5723b5160e01b815260040160405180910390fd5b6001600160a01b0384165f90815260208181526040808320938352928152908290208251808401909352546001600160401b0381168352600160401b900460170b90820152905092915050565b610b5a610cfd565b7f237e158222e3e6968b72b9db0d8043aacf074ad9f650f0d1606b4d82ee432c0080546001600160a01b0319166001600160a01b0383169081178255610b9e6108b4565b6001600160a01b03167f38d16b8cac22d99fc7c124b9cd0de2d3fa1faef420bfe791d8c362d765e2270060405160405180910390a35050565b5f5f610be68360400151610885565b6001600160a01b0385165f908152602081815260408083208484529091529020548451519192506001600160401b03908116911611610c28575f91505061075b565b82516001600160a01b0385165f90815260208181526040808320858452825291829020835191909301516001600160c01b0316600160401b026001600160401b0390911617909155808401519051610c809190611be4565b6040518091039020846001600160a01b03167f46d024811141031367a30ae1537a4926a0d8d76d60b24c8ce4822badc32bb3ae8560400151865f01515f0151875f015160200151604051610cd693929190611c0e565b60405180910390a3826060015115610cf357610cf38484836110ed565b5060019392505050565b33610d066108b4565b6001600160a01b031614610d2f5760405163118cdaa760e01b81523360048201526024016107d1565b565b6001600160a01b0381165f8181526003602052604080822080546001600160a01b0319168155600101829055517fde37507a2967feaf95649773534bddc03d153af2b26b9ea17cdb9b62c5bbf18e9190a250565b306001600160a01b037f0000000000000000000000000000000000000000000000000000000000000000161480610e0b57507f00000000000000000000000000000000000000000000000000000000000000006001600160a01b0316610dff5f516020611cf65f395f51905f52546001600160a01b031690565b6001600160a01b031614155b15610d2f5760405163703e46dd60e11b815260040160405180910390fd5b6106ed610cfd565b816001600160a01b03166352d1902d6040518163ffffffff1660e01b8152600401602060405180830381865afa925050508015610e8b575060408051601f3d908101601f19168201909252610e8891810190611c42565b60015b610eb357604051634c9c8ce360e01b81526001600160a01b03831660048201526024016107d1565b5f516020611cf65f395f51905f528114610ee357604051632a87526960e21b8152600481018290526024016107d1565b610eed838361120a565b505050565b306001600160a01b037f00000000000000000000000000000000000000000000000000000000000000001614610d2f5760405163703e46dd60e11b815260040160405180910390fd5b6040805180820182526001600160a01b0384811680835260208084018681525f83815260038352869020945185546001600160a01b03191694169390931784559151600190930192909255915183815290917f99d8764b5ae5766702a4ec20b7a7c9afdb8827250795c8937679c91f91696ffd910160405180910390a25050565b7f237e158222e3e6968b72b9db0d8043aacf074ad9f650f0d1606b4d82ee432c0080546001600160a01b031916815561070b8261125f565b5f8484848460405160200161100c9493929190611c59565b604051602081830303815290604052805190602001209050949350505050565b7f19457468657265756d205369676e6564204d6573736167653a0a3332000000005f908152601c829052603c812061075b565b604080516020810185905280820184905260f883901b6001600160f81b03191660608201528151604181830301815260619091019091525f906110a286826112cf565b9695505050505050565b5f807ff0c57e16840df040f15088dc2f81fe391c3923bec73e23a9662efc9c229c6a0061075b565b6110dc6112f7565b6106ed8161131c565b610d2f6112f7565b6001600160a01b0383165f8181526001602081815260408084208685528252808420815180830183528851516001600160401b039081168252895185015160170b82860190815283549687018455928752848720915192516001600160c01b0316600160401b029216919091179301929092559282526002835280822084835290925290812080549161117f83611c8f565b919050555081604001516040516111969190611be4565b6040805191829003822084820151855180516020918201516001600160a01b038a165f818152600285528781208a8252909452959092205493957ff79cb86aaf7f25d05a585f46998de53e76a79160b4eefb4c7773b7145e9b1751946111fd949391611ca7565b60405180910390a3505050565b6112138261134d565b6040516001600160a01b038316907fbc7cd75a20ee27fd9adebab32041f755214dbc6bffa90cc0225b39da2e5c2d3b905f90a280511561125757610eed82826113b0565b61070b611422565b7f9016d09d72d40fdae2fd8ceac6b6234c7706214fd39c1cd1e609a0528c19930080546001600160a01b031981166001600160a01b03848116918217845560405192169182907f8be0079c531659141344cd1fd0a4f28419497f9722a3daafe3b4186f6b6457e0905f90a3505050565b5f5f5f5f6112dd8686611441565b9250925092506112ed828261148a565b5090949350505050565b6112ff611542565b610d2f57604051631afcd79f60e31b815260040160405180910390fd5b6113246112f7565b6001600160a01b03811661081657604051631e4fbdf760e01b81525f60048201526024016107d1565b806001600160a01b03163b5f0361138257604051634c9c8ce360e01b81526001600160a01b03821660048201526024016107d1565b5f516020611cf65f395f51905f5280546001600160a01b0319166001600160a01b0392909216919091179055565b60605f5f846001600160a01b0316846040516113cc9190611be4565b5f60405180830381855af49150503d805f8114611404576040519150601f19603f3d011682016040523d82523d5f602084013e611409565b606091505b509150915061141985838361155b565b95945050505050565b3415610d2f5760405163b398979f60e01b815260040160405180910390fd5b5f5f5f8351604103611478576020840151604085015160608601515f1a61146a888285856115b7565b955095509550505050611483565b505081515f91506002905b9250925092565b5f82600381111561149d5761149d611ce1565b036114a6575050565b60018260038111156114ba576114ba611ce1565b036114d85760405163f645eedf60e01b815260040160405180910390fd5b60028260038111156114ec576114ec611ce1565b0361150d5760405163fce698f760e01b8152600481018290526024016107d1565b600382600381111561152157611521611ce1565b0361070b576040516335e2f38360e21b8152600481018290526024016107d1565b5f61154b6110ac565b54600160401b900460ff16919050565b6060826115705761156b8261167f565b61050e565b815115801561158757506001600160a01b0384163b155b156115b057604051639996b31560e01b81526001600160a01b03851660048201526024016107d1565b508061050e565b5f80807f7fffffffffffffffffffffffffffffff5d576e7357a4501ddfe92f46681b20a08411156115f057505f91506003905082611675565b604080515f808252602082018084528a905260ff891692820192909252606081018790526080810186905260019060a0016020604051602081039080840390855afa158015611641573d5f5f3e3d5ffd5b5050604051601f1901519150506001600160a01b03811661166c57505f925060019150829050611675565b92505f91508190505b9450945094915050565b80511561168e57805160208201fd5b60405163d6bda27560e01b815260040160405180910390fd5b80356001600160a01b03811681146116bd575f5ffd5b919050565b634e487b7160e01b5f52604160045260245ffd5b60405160e081016001600160401b03811182821017156116f8576116f86116c2565b60405290565b5f5f6001600160401b03841115611717576117176116c2565b50604051601f19601f85018116603f011681018181106001600160401b0382111715611745576117456116c2565b60405283815290508082840185101561175c575f5ffd5b838360208301375f60208583010152509392505050565b5f82601f830112611782575f5ffd5b61050e838335602085016116fe565b5f5f5f606084860312156117a3575f5ffd5b6117ac846116a7565b925060208401356001600160401b038111156117c6575f5ffd5b6117d286828701611773565b93969395505050506040919091013590565b5f5f602083850312156117f5575f5ffd5b82356001600160401b0381111561180a575f5ffd5b8301601f8101851361181a575f5ffd5b80356001600160401b0381111561182f575f5ffd5b8560208260051b8401011115611843575f5ffd5b6020919091019590945092505050565b5f60208284031215611863575f5ffd5b61050e826116a7565b5f5f6040838503121561187d575f5ffd5b611886836116a7565b915060208301356001600160401b038111156118a0575f5ffd5b8301601f810185136118b0575f5ffd5b6118bf858235602084016116fe565b9150509250929050565b5f5f604083850312156118da575f5ffd5b6118e3836116a7565b915060208301356001600160401b038111156118fd575f5ffd5b6118bf85828601611773565b5f81518084528060208401602086015e5f602082860101526020601f19601f83011685010191505092915050565b602081525f61050e6020830184611909565b5f5f6040838503121561195a575f5ffd5b611963836116a7565b946020939093013593505050565b5f60208284031215611981575f5ffd5b81356001600160401b03811115611996575f5ffd5b6119a284828501611773565b949350505050565b803560ff811681146116bd575f5ffd5b5f5f5f5f5f5f5f60e0888a0312156119d0575f5ffd5b6119d9886116a7565b965060208801356001600160401b038111156119f3575f5ffd5b6119ff8a828b01611773565b96505060408801359450606088013593506080880135925060a08801359150611a2a60c089016119aa565b905092959891949750929550565b634e487b7160e01b5f52603260045260245ffd5b5f823560fe19833603018112611a60575f5ffd5b9190910192915050565b5f60408284031215611a7a575f5ffd5b604080519081016001600160401b0381118282101715611a9c57611a9c6116c2565b60405290508082356001600160401b0381168114611ab8575f5ffd5b81526020830135601781900b8114611ace575f5ffd5b6020919091015292915050565b803580151581146116bd575f5ffd5b5f6101008236031215611afb575f5ffd5b611b036116d6565b611b0d3684611a6a565b8152611b1b604084016116a7565b602082015260608301356001600160401b03811115611b38575f5ffd5b611b4436828601611773565b604083015250611b5660808401611adb565b606082015260a083810135608083015260c084013590820152611b7b60e084016119aa565b60c082015292915050565b634e487b7160e01b5f52601160045260245ffd5b5f61ffff821661ffff8103611bb157611bb1611b86565b60010192915050565b8082018082111561075b5761075b611b86565b5f81518060208401855e5f93019283525090919050565b5f61050e8284611bcd565b5f82611c0957634e487b7160e01b5f52601260045260245ffd5b500490565b606081525f611c206060830186611909565b90506001600160401b03841660208301528260170b6040830152949350505050565b5f60208284031215611c52575f5ffd5b5051919050565b6bffffffffffffffffffffffff198560601b1681525f611c7c6014830186611bcd565b9384525050602082015260400192915050565b5f60018201611ca057611ca0611b86565b5060010190565b608081525f611cb96080830187611909565b6001600160401b039590951660208301525060179290920b6040830152606090910152919050565b634e487b7160e01b5f52602160045260245ffdfe360894a13ba1a3210667c828492db98dca3e2076cc3735a920a3ca505d382bbca2646970667358221220fefbe9c0626449f80352ac5628d262f52221dd4013c3aac53a6c808998e0df3664736f6c634300081c0033",
  "linkReferences": {},
  "deployedLinkReferences": {},
  "immutableReferences": {
    "619": [
      {
        "length": 32,
        "start": 3472
      },
      {
        "length": 32,
        "start": 3513
      },
      {
        "length": 32,
        "start": 3837
      }
    ]
  },
  "inputSourceName": "project/contracts/UpgradeableFirstPartyStork.sol",
  "buildInfoId": "solc-0_8_28-50534f8f9d1c07e1b27d045e1fe4366b8900f6db"
}